{
  "_format": "hh-sol-artifact-1",
  "contractName": "TransparentDonationTracker",
  "sourceName": "contracts/Donation.sol",
  "abi": [
    {
      "inputs": [],
      "stateMutability": "nonpayable",
      "type": "constructor"
    },
    {
      "inputs": [],
      "name": "ERC721EnumerableForbiddenBatchMint",
      "type": "error"
    },
    {
      "inputs": [
        {
          "internalType": "address",
          "name": "sender",
          "type": "address"
        },
        {
          "internalType": "uint256",
          "name": "tokenId",
          "type": "uint256"
        },
        {
          "internalType": "address",
          "name": "owner",
          "type": "address"
        }
      ],
      "name": "ERC721IncorrectOwner",
      "type": "error"
    },
    {
      "inputs": [
        {
          "internalType": "address",
          "name": "operator",
          "type": "address"
        },
        {
          "internalType": "uint256",
          "name": "tokenId",
          "type": "uint256"
        }
      ],
      "name": "ERC721InsufficientApproval",
      "type": "error"
    },
    {
      "inputs": [
        {
          "internalType": "address",
          "name": "approver",
          "type": "address"
        }
      ],
      "name": "ERC721InvalidApprover",
      "type": "error"
    },
    {
      "inputs": [
        {
          "internalType": "address",
          "name": "operator",
          "type": "address"
        }
      ],
      "name": "ERC721InvalidOperator",
      "type": "error"
    },
    {
      "inputs": [
        {
          "internalType": "address",
          "name": "owner",
          "type": "address"
        }
      ],
      "name": "ERC721InvalidOwner",
      "type": "error"
    },
    {
      "inputs": [
        {
          "internalType": "address",
          "name": "receiver",
          "type": "address"
        }
      ],
      "name": "ERC721InvalidReceiver",
      "type": "error"
    },
    {
      "inputs": [
        {
          "internalType": "address",
          "name": "sender",
          "type": "address"
        }
      ],
      "name": "ERC721InvalidSender",
      "type": "error"
    },
    {
      "inputs": [
        {
          "internalType": "uint256",
          "name": "tokenId",
          "type": "uint256"
        }
      ],
      "name": "ERC721NonexistentToken",
      "type": "error"
    },
    {
      "inputs": [
        {
          "internalType": "address",
          "name": "owner",
          "type": "address"
        },
        {
          "internalType": "uint256",
          "name": "index",
          "type": "uint256"
        }
      ],
      "name": "ERC721OutOfBoundsIndex",
      "type": "error"
    },
    {
      "inputs": [
        {
          "internalType": "address",
          "name": "owner",
          "type": "address"
        }
      ],
      "name": "OwnableInvalidOwner",
      "type": "error"
    },
    {
      "inputs": [
        {
          "internalType": "address",
          "name": "account",
          "type": "address"
        }
      ],
      "name": "OwnableUnauthorizedAccount",
      "type": "error"
    },
    {
      "inputs": [],
      "name": "ReentrancyGuardReentrantCall",
      "type": "error"
    },
    {
      "anonymous": false,
      "inputs": [
        {
          "indexed": true,
          "internalType": "address",
          "name": "owner",
          "type": "address"
        },
        {
          "indexed": true,
          "internalType": "address",
          "name": "approved",
          "type": "address"
        },
        {
          "indexed": true,
          "internalType": "uint256",
          "name": "tokenId",
          "type": "uint256"
        }
      ],
      "name": "Approval",
      "type": "event"
    },
    {
      "anonymous": false,
      "inputs": [
        {
          "indexed": true,
          "internalType": "address",
          "name": "owner",
          "type": "address"
        },
        {
          "indexed": true,
          "internalType": "address",
          "name": "operator",
          "type": "address"
        },
        {
          "indexed": false,
          "internalType": "bool",
          "name": "approved",
          "type": "bool"
        }
      ],
      "name": "ApprovalForAll",
      "type": "event"
    },
    {
      "anonymous": false,
      "inputs": [
        {
          "indexed": true,
          "internalType": "address",
          "name": "donor",
          "type": "address"
        },
        {
          "indexed": false,
          "internalType": "string",
          "name": "badgeType",
          "type": "string"
        },
        {
          "indexed": false,
          "internalType": "uint256",
          "name": "tokenId",
          "type": "uint256"
        }
      ],
      "name": "BadgeEarned",
      "type": "event"
    },
    {
      "anonymous": false,
      "inputs": [
        {
          "indexed": true,
          "internalType": "bytes32",
          "name": "causeId",
          "type": "bytes32"
        },
        {
          "indexed": false,
          "internalType": "string",
          "name": "causeName",
          "type": "string"
        },
        {
          "indexed": false,
          "internalType": "string",
          "name": "description",
          "type": "string"
        },
        {
          "indexed": false,
          "internalType": "address",
          "name": "beneficiary",
          "type": "address"
        },
        {
          "indexed": false,
          "internalType": "uint256",
          "name": "targetAmount",
          "type": "uint256"
        }
      ],
      "name": "CauseCreated",
      "type": "event"
    },
    {
      "anonymous": false,
      "inputs": [
        {
          "indexed": true,
          "internalType": "bytes32",
          "name": "causeId",
          "type": "bytes32"
        },
        {
          "indexed": false,
          "internalType": "string",
          "name": "causeName",
          "type": "string"
        },
        {
          "indexed": false,
          "internalType": "uint256",
          "name": "finalAmount",
          "type": "uint256"
        },
        {
          "indexed": false,
          "internalType": "uint256",
          "name": "donorCount",
          "type": "uint256"
        }
      ],
      "name": "CauseTargetReached",
      "type": "event"
    },
    {
      "anonymous": false,
      "inputs": [
        {
          "indexed": true,
          "internalType": "address",
          "name": "donor",
          "type": "address"
        },
        {
          "indexed": true,
          "internalType": "bytes32",
          "name": "causeId",
          "type": "bytes32"
        },
        {
          "indexed": false,
          "internalType": "string",
          "name": "causeName",
          "type": "string"
        },
        {
          "indexed": false,
          "internalType": "uint256",
          "name": "amount",
          "type": "uint256"
        },
        {
          "indexed": false,
          "internalType": "uint256",
          "name": "impactScore",
          "type": "uint256"
        },
        {
          "indexed": false,
          "internalType": "uint256",
          "name": "timestamp",
          "type": "uint256"
        }
      ],
      "name": "DonationReceived",
      "type": "event"
    },
    {
      "anonymous": false,
      "inputs": [
        {
          "indexed": true,
          "internalType": "bytes32",
          "name": "causeId",
          "type": "bytes32"
        },
        {
          "indexed": false,
          "internalType": "string",
          "name": "causeName",
          "type": "string"
        },
        {
          "indexed": false,
          "internalType": "address",
          "name": "beneficiary",
          "type": "address"
        },
        {
          "indexed": false,
          "internalType": "uint256",
          "name": "amount",
          "type": "uint256"
        }
      ],
      "name": "FundsWithdrawn",
      "type": "event"
    },
    {
      "anonymous": false,
      "inputs": [
        {
          "indexed": true,
          "internalType": "address",
          "name": "donor",
          "type": "address"
        },
        {
          "indexed": false,
          "internalType": "uint256",
          "name": "newScore",
          "type": "uint256"
        },
        {
          "indexed": true,
          "internalType": "bytes32",
          "name": "causeId",
          "type": "bytes32"
        },
        {
          "indexed": false,
          "internalType": "string",
          "name": "causeName",
          "type": "string"
        }
      ],
      "name": "ImpactScoreUpdated",
      "type": "event"
    },
    {
      "anonymous": false,
      "inputs": [
        {
          "indexed": true,
          "internalType": "bytes32",
          "name": "causeId",
          "type": "bytes32"
        },
        {
          "indexed": false,
          "internalType": "string",
          "name": "causeName",
          "type": "string"
        },
        {
          "indexed": false,
          "internalType": "string",
          "name": "description",
          "type": "string"
        },
        {
          "indexed": false,
          "internalType": "uint256",
          "name": "targetAmount",
          "type": "uint256"
        }
      ],
      "name": "MilestoneAdded",
      "type": "event"
    },
    {
      "anonymous": false,
      "inputs": [
        {
          "indexed": true,
          "internalType": "bytes32",
          "name": "causeId",
          "type": "bytes32"
        },
        {
          "indexed": false,
          "internalType": "string",
          "name": "causeName",
          "type": "string"
        },
        {
          "indexed": false,
          "internalType": "uint256",
          "name": "milestoneIndex",
          "type": "uint256"
        },
        {
          "indexed": false,
          "internalType": "uint256",
          "name": "completionTime",
          "type": "uint256"
        }
      ],
      "name": "MilestoneCompleted",
      "type": "event"
    },
    {
      "anonymous": false,
      "inputs": [
        {
          "indexed": true,
          "internalType": "address",
          "name": "previousOwner",
          "type": "address"
        },
        {
          "indexed": true,
          "internalType": "address",
          "name": "newOwner",
          "type": "address"
        }
      ],
      "name": "OwnershipTransferred",
      "type": "event"
    },
    {
      "anonymous": false,
      "inputs": [
        {
          "indexed": true,
          "internalType": "address",
          "name": "from",
          "type": "address"
        },
        {
          "indexed": true,
          "internalType": "address",
          "name": "to",
          "type": "address"
        },
        {
          "indexed": true,
          "internalType": "uint256",
          "name": "tokenId",
          "type": "uint256"
        }
      ],
      "name": "Transfer",
      "type": "event"
    },
    {
      "inputs": [],
      "name": "BRONZE_THRESHOLD",
      "outputs": [
        {
          "internalType": "uint256",
          "name": "",
          "type": "uint256"
        }
      ],
      "stateMutability": "view",
      "type": "function"
    },
    {
      "inputs": [],
      "name": "DIAMOND_THRESHOLD",
      "outputs": [
        {
          "internalType": "uint256",
          "name": "",
          "type": "uint256"
        }
      ],
      "stateMutability": "view",
      "type": "function"
    },
    {
      "inputs": [],
      "name": "GOLD_THRESHOLD",
      "outputs": [
        {
          "internalType": "uint256",
          "name": "",
          "type": "uint256"
        }
      ],
      "stateMutability": "view",
      "type": "function"
    },
    {
      "inputs": [],
      "name": "SILVER_THRESHOLD",
      "outputs": [
        {
          "internalType": "uint256",
          "name": "",
          "type": "uint256"
        }
      ],
      "stateMutability": "view",
      "type": "function"
    },
    {
      "inputs": [
        {
          "internalType": "string",
          "name": "causeName",
          "type": "string"
        },
        {
          "internalType": "string",
          "name": "description",
          "type": "string"
        },
        {
          "internalType": "uint256",
          "name": "targetAmount",
          "type": "uint256"
        }
      ],
      "name": "addMilestone",
      "outputs": [],
      "stateMutability": "nonpayable",
      "type": "function"
    },
    {
      "inputs": [
        {
          "internalType": "address",
          "name": "to",
          "type": "address"
        },
        {
          "internalType": "uint256",
          "name": "tokenId",
          "type": "uint256"
        }
      ],
      "name": "approve",
      "outputs": [],
      "stateMutability": "nonpayable",
      "type": "function"
    },
    {
      "inputs": [
        {
          "internalType": "address",
          "name": "owner",
          "type": "address"
        }
      ],
      "name": "balanceOf",
      "outputs": [
        {
          "internalType": "uint256",
          "name": "",
          "type": "uint256"
        }
      ],
      "stateMutability": "view",
      "type": "function"
    },
    {
      "inputs": [
        {
          "internalType": "bytes32",
          "name": "",
          "type": "bytes32"
        },
        {
          "internalType": "address",
          "name": "",
          "type": "address"
        }
      ],
      "name": "causeDonorAmount",
      "outputs": [
        {
          "internalType": "uint256",
          "name": "",
          "type": "uint256"
        }
      ],
      "stateMutability": "view",
      "type": "function"
    },
    {
      "inputs": [
        {
          "internalType": "bytes32",
          "name": "",
          "type": "bytes32"
        },
        {
          "internalType": "uint256",
          "name": "",
          "type": "uint256"
        }
      ],
      "name": "causeMilestones",
      "outputs": [
        {
          "internalType": "string",
          "name": "description",
          "type": "string"
        },
        {
          "internalType": "uint256",
          "name": "targetAmount",
          "type": "uint256"
        },
        {
          "internalType": "bool",
          "name": "isCompleted",
          "type": "bool"
        },
        {
          "internalType": "uint256",
          "name": "completionTime",
          "type": "uint256"
        }
      ],
      "stateMutability": "view",
      "type": "function"
    },
    {
      "inputs": [
        {
          "internalType": "string",
          "name": "",
          "type": "string"
        }
      ],
      "name": "causeNameToId",
      "outputs": [
        {
          "internalType": "bytes32",
          "name": "",
          "type": "bytes32"
        }
      ],
      "stateMutability": "view",
      "type": "function"
    },
    {
      "inputs": [
        {
          "internalType": "bytes32",
          "name": "",
          "type": "bytes32"
        }
      ],
      "name": "causesById",
      "outputs": [
        {
          "internalType": "bytes32",
          "name": "id",
          "type": "bytes32"
        },
        {
          "internalType": "string",
          "name": "name",
          "type": "string"
        },
        {
          "internalType": "string",
          "name": "description",
          "type": "string"
        },
        {
          "internalType": "address payable",
          "name": "beneficiary",
          "type": "address"
        },
        {
          "internalType": "uint256",
          "name": "targetAmount",
          "type": "uint256"
        },
        {
          "internalType": "uint256",
          "name": "currentAmount",
          "type": "uint256"
        },
        {
          "internalType": "uint256",
          "name": "donorCount",
          "type": "uint256"
        },
        {
          "internalType": "bool",
          "name": "isActive",
          "type": "bool"
        },
        {
          "internalType": "bool",
          "name": "targetReached",
          "type": "bool"
        }
      ],
      "stateMutability": "view",
      "type": "function"
    },
    {
      "inputs": [
        {
          "internalType": "string",
          "name": "name",
          "type": "string"
        },
        {
          "internalType": "string",
          "name": "description",
          "type": "string"
        },
        {
          "internalType": "address payable",
          "name": "beneficiary",
          "type": "address"
        },
        {
          "internalType": "uint256",
          "name": "targetAmount",
          "type": "uint256"
        }
      ],
      "name": "createCause",
      "outputs": [],
      "stateMutability": "nonpayable",
      "type": "function"
    },
    {
      "inputs": [
        {
          "internalType": "string",
          "name": "causeName",
          "type": "string"
        }
      ],
      "name": "donate",
      "outputs": [],
      "stateMutability": "payable",
      "type": "function"
    },
    {
      "inputs": [
        {
          "internalType": "address",
          "name": "",
          "type": "address"
        },
        {
          "internalType": "uint256",
          "name": "",
          "type": "uint256"
        }
      ],
      "name": "donorHistory",
      "outputs": [
        {
          "internalType": "uint256",
          "name": "amount",
          "type": "uint256"
        },
        {
          "internalType": "address",
          "name": "donor",
          "type": "address"
        },
        {
          "internalType": "uint256",
          "name": "timestamp",
          "type": "uint256"
        },
        {
          "internalType": "bytes32",
          "name": "causeId",
          "type": "bytes32"
        },
        {
          "internalType": "string",
          "name": "causeName",
          "type": "string"
        },
        {
          "internalType": "uint256",
          "name": "impactScore",
          "type": "uint256"
        }
      ],
      "stateMutability": "view",
      "type": "function"
    },
    {
      "inputs": [
        {
          "internalType": "address",
          "name": "",
          "type": "address"
        }
      ],
      "name": "donorImpactScore",
      "outputs": [
        {
          "internalType": "uint256",
          "name": "",
          "type": "uint256"
        }
      ],
      "stateMutability": "view",
      "type": "function"
    },
    {
      "inputs": [
        {
          "internalType": "uint256",
          "name": "tokenId",
          "type": "uint256"
        }
      ],
      "name": "getApproved",
      "outputs": [
        {
          "internalType": "address",
          "name": "",
          "type": "address"
        }
      ],
      "stateMutability": "view",
      "type": "function"
    },
    {
      "inputs": [
        {
          "internalType": "string",
          "name": "causeName",
          "type": "string"
        }
      ],
      "name": "getCauseMilestones",
      "outputs": [
        {
          "components": [
            {
              "internalType": "string",
              "name": "description",
              "type": "string"
            },
            {
              "internalType": "uint256",
              "name": "targetAmount",
              "type": "uint256"
            },
            {
              "internalType": "bool",
              "name": "isCompleted",
              "type": "bool"
            },
            {
              "internalType": "uint256",
              "name": "completionTime",
              "type": "uint256"
            }
          ],
          "internalType": "struct TransparentDonationTracker.Milestone[]",
          "name": "",
          "type": "tuple[]"
        }
      ],
      "stateMutability": "view",
      "type": "function"
    },
    {
      "inputs": [
        {
          "internalType": "address",
          "name": "donor",
          "type": "address"
        }
      ],
      "name": "getDonorHistory",
      "outputs": [
        {
          "components": [
            {
              "internalType": "uint256",
              "name": "amount",
              "type": "uint256"
            },
            {
              "internalType": "address",
              "name": "donor",
              "type": "address"
            },
            {
              "internalType": "uint256",
              "name": "timestamp",
              "type": "uint256"
            },
            {
              "internalType": "bytes32",
              "name": "causeId",
              "type": "bytes32"
            },
            {
              "internalType": "string",
              "name": "causeName",
              "type": "string"
            },
            {
              "internalType": "uint256",
              "name": "impactScore",
              "type": "uint256"
            }
          ],
          "internalType": "struct TransparentDonationTracker.Donation[]",
          "name": "",
          "type": "tuple[]"
        }
      ],
      "stateMutability": "view",
      "type": "function"
    },
    {
      "inputs": [
        {
          "internalType": "address",
          "name": "donor",
          "type": "address"
        }
      ],
      "name": "getDonorImpactScore",
      "outputs": [
        {
          "internalType": "uint256",
          "name": "",
          "type": "uint256"
        }
      ],
      "stateMutability": "view",
      "type": "function"
    },
    {
      "inputs": [
        {
          "internalType": "address",
          "name": "",
          "type": "address"
        }
      ],
      "name": "hasBronzeBadge",
      "outputs": [
        {
          "internalType": "bool",
          "name": "",
          "type": "bool"
        }
      ],
      "stateMutability": "view",
      "type": "function"
    },
    {
      "inputs": [
        {
          "internalType": "address",
          "name": "",
          "type": "address"
        }
      ],
      "name": "hasDiamondBadge",
      "outputs": [
        {
          "internalType": "bool",
          "name": "",
          "type": "bool"
        }
      ],
      "stateMutability": "view",
      "type": "function"
    },
    {
      "inputs": [
        {
          "internalType": "address",
          "name": "",
          "type": "address"
        }
      ],
      "name": "hasGoldBadge",
      "outputs": [
        {
          "internalType": "bool",
          "name": "",
          "type": "bool"
        }
      ],
      "stateMutability": "view",
      "type": "function"
    },
    {
      "inputs": [
        {
          "internalType": "address",
          "name": "",
          "type": "address"
        }
      ],
      "name": "hasSilverBadge",
      "outputs": [
        {
          "internalType": "bool",
          "name": "",
          "type": "bool"
        }
      ],
      "stateMutability": "view",
      "type": "function"
    },
    {
      "inputs": [
        {
          "internalType": "address",
          "name": "owner",
          "type": "address"
        },
        {
          "internalType": "address",
          "name": "operator",
          "type": "address"
        }
      ],
      "name": "isApprovedForAll",
      "outputs": [
        {
          "internalType": "bool",
          "name": "",
          "type": "bool"
        }
      ],
      "stateMutability": "view",
      "type": "function"
    },
    {
      "inputs": [],
      "name": "name",
      "outputs": [
        {
          "internalType": "string",
          "name": "",
          "type": "string"
        }
      ],
      "stateMutability": "view",
      "type": "function"
    },
    {
      "inputs": [],
      "name": "owner",
      "outputs": [
        {
          "internalType": "address",
          "name": "",
          "type": "address"
        }
      ],
      "stateMutability": "view",
      "type": "function"
    },
    {
      "inputs": [
        {
          "internalType": "uint256",
          "name": "tokenId",
          "type": "uint256"
        }
      ],
      "name": "ownerOf",
      "outputs": [
        {
          "internalType": "address",
          "name": "",
          "type": "address"
        }
      ],
      "stateMutability": "view",
      "type": "function"
    },
    {
      "inputs": [],
      "name": "renounceOwnership",
      "outputs": [],
      "stateMutability": "nonpayable",
      "type": "function"
    },
    {
      "inputs": [
        {
          "internalType": "address",
          "name": "from",
          "type": "address"
        },
        {
          "internalType": "address",
          "name": "to",
          "type": "address"
        },
        {
          "internalType": "uint256",
          "name": "tokenId",
          "type": "uint256"
        }
      ],
      "name": "safeTransferFrom",
      "outputs": [],
      "stateMutability": "nonpayable",
      "type": "function"
    },
    {
      "inputs": [
        {
          "internalType": "address",
          "name": "from",
          "type": "address"
        },
        {
          "internalType": "address",
          "name": "to",
          "type": "address"
        },
        {
          "internalType": "uint256",
          "name": "tokenId",
          "type": "uint256"
        },
        {
          "internalType": "bytes",
          "name": "data",
          "type": "bytes"
        }
      ],
      "name": "safeTransferFrom",
      "outputs": [],
      "stateMutability": "nonpayable",
      "type": "function"
    },
    {
      "inputs": [
        {
          "internalType": "address",
          "name": "operator",
          "type": "address"
        },
        {
          "internalType": "bool",
          "name": "approved",
          "type": "bool"
        }
      ],
      "name": "setApprovalForAll",
      "outputs": [],
      "stateMutability": "nonpayable",
      "type": "function"
    },
    {
      "inputs": [
        {
          "internalType": "bytes4",
          "name": "interfaceId",
          "type": "bytes4"
        }
      ],
      "name": "supportsInterface",
      "outputs": [
        {
          "internalType": "bool",
          "name": "",
          "type": "bool"
        }
      ],
      "stateMutability": "view",
      "type": "function"
    },
    {
      "inputs": [],
      "name": "symbol",
      "outputs": [
        {
          "internalType": "string",
          "name": "",
          "type": "string"
        }
      ],
      "stateMutability": "view",
      "type": "function"
    },
    {
      "inputs": [
        {
          "internalType": "uint256",
          "name": "index",
          "type": "uint256"
        }
      ],
      "name": "tokenByIndex",
      "outputs": [
        {
          "internalType": "uint256",
          "name": "",
          "type": "uint256"
        }
      ],
      "stateMutability": "view",
      "type": "function"
    },
    {
      "inputs": [
        {
          "internalType": "address",
          "name": "owner",
          "type": "address"
        },
        {
          "internalType": "uint256",
          "name": "index",
          "type": "uint256"
        }
      ],
      "name": "tokenOfOwnerByIndex",
      "outputs": [
        {
          "internalType": "uint256",
          "name": "",
          "type": "uint256"
        }
      ],
      "stateMutability": "view",
      "type": "function"
    },
    {
      "inputs": [
        {
          "internalType": "uint256",
          "name": "tokenId",
          "type": "uint256"
        }
      ],
      "name": "tokenURI",
      "outputs": [
        {
          "internalType": "string",
          "name": "",
          "type": "string"
        }
      ],
      "stateMutability": "view",
      "type": "function"
    },
    {
      "inputs": [],
      "name": "totalDonations",
      "outputs": [
        {
          "internalType": "uint256",
          "name": "",
          "type": "uint256"
        }
      ],
      "stateMutability": "view",
      "type": "function"
    },
    {
      "inputs": [],
      "name": "totalSupply",
      "outputs": [
        {
          "internalType": "uint256",
          "name": "",
          "type": "uint256"
        }
      ],
      "stateMutability": "view",
      "type": "function"
    },
    {
      "inputs": [
        {
          "internalType": "address",
          "name": "from",
          "type": "address"
        },
        {
          "internalType": "address",
          "name": "to",
          "type": "address"
        },
        {
          "internalType": "uint256",
          "name": "tokenId",
          "type": "uint256"
        }
      ],
      "name": "transferFrom",
      "outputs": [],
      "stateMutability": "nonpayable",
      "type": "function"
    },
    {
      "inputs": [
        {
          "internalType": "address",
          "name": "newOwner",
          "type": "address"
        }
      ],
      "name": "transferOwnership",
      "outputs": [],
      "stateMutability": "nonpayable",
      "type": "function"
    },
    {
      "inputs": [
        {
          "internalType": "string",
          "name": "causeName",
          "type": "string"
        }
      ],
      "name": "withdrawFunds",
      "outputs": [],
      "stateMutability": "nonpayable",
      "type": "function"
    }
  ],
  "bytecode": "0x60806040523480156200001157600080fd5b50336040518060400160405280600d81526020016c446f6e6174696f6e426164676560981b8152506040518060400160405280600681526020016544424144474560d01b8152508160009081620000699190620001b8565b506001620000788282620001b8565b5050506001600160a01b038116620000aa57604051631e4fbdf760e01b81526000600482015260240160405180910390fd5b620000b581620000c1565b506001600b5562000284565b600a80546001600160a01b038381166001600160a01b0319831681179093556040519116919082907f8be0079c531659141344cd1fd0a4f28419497f9722a3daafe3b4186f6b6457e090600090a35050565b634e487b7160e01b600052604160045260246000fd5b600181811c908216806200013e57607f821691505b6020821081036200015f57634e487b7160e01b600052602260045260246000fd5b50919050565b601f821115620001b357600081815260208120601f850160051c810160208610156200018e5750805b601f850160051c820191505b81811015620001af578281556001016200019a565b5050505b505050565b81516001600160401b03811115620001d457620001d462000113565b620001ec81620001e5845462000129565b8462000165565b602080601f8311600181146200022457600084156200020b5750858301515b600019600386901b1c1916600185901b178555620001af565b600085815260208120601f198616915b82811015620002555788860151825594840194600190910190840162000234565b5085821015620002745787850151600019600388901b60f8161c191681555b5050505050600190811b01905550565b6137d480620002946000396000f3fe6080604052600436106102465760003560e01c806377243d6511610139578063b5aebc80116100b6578063c87b56dd1161007a578063c87b56dd1461076e578063d5d250491461078e578063de2ed893146107be578063e985e9c5146107d4578063f2fde38b146107f4578063f52a387f1461081457600080fd5b8063b5aebc80146106af578063b7287eb5146106c2578063b88d4fde146106fa578063c046454c1461071a578063c1a0db301461075257600080fd5b80639c1ea271116100fd5780639c1ea271146105dc578063a22cb46514610609578063a48f18e214610629578063a847e5ea14610659578063b1a23eae1461067957600080fd5b806377243d651461052a5780637969f3b81461054a5780637ed3840a1461057c5780638da5cb5b146105a957806395d89b41146105c757600080fd5b80633e4cbf42116101c757806361ec48ec1161018b57806361ec48ec146104895780636352211e146104b957806369a2f026146104d957806370a08231146104f5578063715018a61461051557600080fd5b80633e4cbf42146103d057806342842e0e146103fd5780634f6ccce71461041d578063569739741461043d578063614b36e21461045957600080fd5b80630b8df9f11161020e5780630b8df9f11461031c57806318160ddd146103465780632280073b1461035b57806323b872dd146103905780632f745c59146103b057600080fd5b806301ffc9a71461024b57806303b86b5a1461028057806306fdde03146102a2578063081812fc146102c4578063095ea7b3146102fc575b600080fd5b34801561025757600080fd5b5061026b610266366004612c54565b610844565b60405190151581526020015b60405180910390f35b34801561028c57600080fd5b506102a061029b366004612cba565b61086f565b005b3480156102ae57600080fd5b506102b7610a6e565b6040516102779190612d4c565b3480156102d057600080fd5b506102e46102df366004612d5f565b610b00565b6040516001600160a01b039091168152602001610277565b34801561030857600080fd5b506102a0610317366004612d8d565b610b29565b34801561032857600080fd5b50610338674563918244f4000081565b604051908152602001610277565b34801561035257600080fd5b50600854610338565b34801561036757600080fd5b5061037b610376366004612d5f565b610b34565b60405161027799989796959493929190612db9565b34801561039c57600080fd5b506102a06103ab366004612e29565b610c9c565b3480156103bc57600080fd5b506103386103cb366004612d8d565b610d27565b3480156103dc57600080fd5b506103f06103eb366004612e6a565b610d8c565b6040516102779190612e87565b34801561040957600080fd5b506102a0610418366004612e29565b610ed2565b34801561042957600080fd5b50610338610438366004612d5f565b610ef2565b34801561044957600080fd5b50610338670de0b6b3a764000081565b34801561046557600080fd5b5061026b610474366004612e6a565b60166020526000908152604090205460ff1681565b34801561049557600080fd5b5061026b6104a4366004612e6a565b60136020526000908152604090205460ff1681565b3480156104c557600080fd5b506102e46104d4366004612d5f565b610f4b565b3480156104e557600080fd5b5061033867016345785d8a000081565b34801561050157600080fd5b50610338610510366004612e6a565b610f56565b34801561052157600080fd5b506102a0610f9e565b34801561053657600080fd5b506102a0610545366004612f34565b610fb2565b34801561055657600080fd5b5061056a610565366004612d8d565b6112d1565b60405161027796959493929190612fc0565b34801561058857600080fd5b50610338610597366004612e6a565b60176020526000908152604090205481565b3480156105b557600080fd5b50600a546001600160a01b03166102e4565b3480156105d357600080fd5b506102b76113bd565b3480156105e857600080fd5b506105fc6105f7366004612cba565b6113cc565b6040516102779190613006565b34801561061557600080fd5b506102a0610624366004613085565b611534565b34801561063557600080fd5b5061026b610644366004612e6a565b60146020526000908152604090205460ff1681565b34801561066557600080fd5b506102a06106743660046130c3565b61153f565b34801561068557600080fd5b50610338610694366004612e6a565b6001600160a01b031660009081526017602052604090205490565b6102a06106bd366004612cba565b611690565b3480156106ce57600080fd5b506103386106dd3660046131c3565b8051602081830181018051600f8252928201919093012091525481565b34801561070657600080fd5b506102a061071536600461320c565b611afe565b34801561072657600080fd5b5061033861073536600461328c565b601260209081526000928352604080842090915290825290205481565b34801561075e57600080fd5b506103386706f05b59d3b2000081565b34801561077a57600080fd5b506102b7610789366004612d5f565b611b16565b34801561079a57600080fd5b506107ae6107a93660046132b1565b611b8b565b60405161027794939291906132d3565b3480156107ca57600080fd5b50610338600d5481565b3480156107e057600080fd5b5061026b6107ef366004613302565b611c66565b34801561080057600080fd5b506102a061080f366004612e6a565b611c94565b34801561082057600080fd5b5061026b61082f366004612e6a565b60156020526000908152604090205460ff1681565b60006001600160e01b0319821663780e9d6360e01b1480610869575061086982611cd2565b92915050565b610877611d22565b6000600f838360405161088b929190613330565b908152604051908190036020019020549050806108c35760405162461bcd60e51b81526004016108ba90613340565b60405180910390fd5b6000818152600e6020526040902060038101546001600160a01b0316331461091f5760405162461bcd60e51b815260206004820152600f60248201526e4e6f742062656e656669636961727960881b60448201526064016108ba565b600081600501541161096a5760405162461bcd60e51b81526020600482015260146024820152734e6f2066756e647320746f20776974686472617760601b60448201526064016108ba565b60058101805460009182905560038301546040519192916001600160a01b039091169083908381818185875af1925050503d80600081146109c7576040519150601f19603f3d011682016040523d82523d6000602084013e6109cc565b606091505b5050905080610a0f5760405162461bcd60e51b815260206004820152600f60248201526e151c985b9cd9995c8819985a5b1959608a1b60448201526064016108ba565b600383015460405185917f552ece5ee486c18e726feb7514e388f06eb7fba92ecfd3877f86735791f47cb391610a54918a918a916001600160a01b0316908890613397565b60405180910390a250505050610a6a6001600b55565b5050565b606060008054610a7d906133c7565b80601f0160208091040260200160405190810160405280929190818152602001828054610aa9906133c7565b8015610af65780601f10610acb57610100808354040283529160200191610af6565b820191906000526020600020905b815481529060010190602001808311610ad957829003601f168201915b5050505050905090565b6000610b0b82611d4c565b506000828152600460205260409020546001600160a01b0316610869565b610a6a828233611d85565b600e6020526000908152604090208054600182018054919291610b56906133c7565b80601f0160208091040260200160405190810160405280929190818152602001828054610b82906133c7565b8015610bcf5780601f10610ba457610100808354040283529160200191610bcf565b820191906000526020600020905b815481529060010190602001808311610bb257829003601f168201915b505050505090806002018054610be4906133c7565b80601f0160208091040260200160405190810160405280929190818152602001828054610c10906133c7565b8015610c5d5780601f10610c3257610100808354040283529160200191610c5d565b820191906000526020600020905b815481529060010190602001808311610c4057829003601f168201915b505050600384015460048501546005860154600687015460079097015495966001600160a01b0390931695919450925060ff8082169161010090041689565b6001600160a01b038216610cc657604051633250574960e11b8152600060048201526024016108ba565b6000610cd3838333611d92565b9050836001600160a01b0316816001600160a01b031614610d21576040516364283d7b60e01b81526001600160a01b03808616600483015260248201849052821660448201526064016108ba565b50505050565b6000610d3283610f56565b8210610d635760405163295f44f760e21b81526001600160a01b0384166004820152602481018390526044016108ba565b506001600160a01b03919091166000908152600660209081526040808320938352929052205490565b6001600160a01b0381166000908152601160209081526040808320805482518185028101850190935280835260609492939192909184015b82821015610ec75760008481526020908190206040805160c081018252600686029092018054835260018101546001600160a01b03169383019390935260028301549082015260038201546060820152600482018054919291608084019190610e2c906133c7565b80601f0160208091040260200160405190810160405280929190818152602001828054610e58906133c7565b8015610ea55780601f10610e7a57610100808354040283529160200191610ea5565b820191906000526020600020905b815481529060010190602001808311610e8857829003601f168201915b5050505050815260200160058201548152505081526020019060010190610dc4565b505050509050919050565b610eed83838360405180602001604052806000815250611afe565b505050565b6000610efd60085490565b8210610f265760405163295f44f760e21b815260006004820152602481018390526044016108ba565b60088281548110610f3957610f39613401565b90600052602060002001549050919050565b600061086982611d4c565b60006001600160a01b038216610f82576040516322718ad960e21b8152600060048201526024016108ba565b506001600160a01b031660009081526003602052604090205490565b610fa6611e67565b610fb06000611e94565b565b610fba611e67565b6000801b600f8787604051610fd0929190613330565b908152602001604051809103902054146110235760405162461bcd60e51b8152602060048201526014602482015273436175736520616c72656164792065786973747360601b60448201526064016108ba565b600081116110735760405162461bcd60e51b815260206004820152601e60248201527f54617267657420616d6f756e74206d75737420626520706f736974697665000060448201526064016108ba565b6001600160a01b0382166110bf5760405162461bcd60e51b8152602060048201526013602482015272496e76616c69642062656e656669636961727960681b60448201526064016108ba565b60008686426040516020016110d693929190613417565b604051602081830303815290604052805190602001209050600060405180610120016040528083815260200189898080601f016020809104026020016040519081016040528093929190818152602001838380828437600092019190915250505090825250604080516020601f8a018190048102820181019092528881529181019190899089908190840183828082843760009201829052509385525050506001600160a01b03871660208084019190915260408084018890526060840183905260808401839052600160a0850181905260c0909401839052868352600e82529091208351815590830151929350839290918201906111d5908261346f565b50604082015160028201906111ea908261346f565b5060608201516003820180546001600160a01b0319166001600160a01b039092169190911790556080820151600482015560a0820151600582015560c0820151600682015560e0820151600790910180546101009384015161ffff1990911692151561ff001916929092179115159092021790556040518290600f90611273908b908b90613330565b908152602001604051809103902081905550817f0cc89d307594e4dc93172f6afe28c2bcf749db4fc408873f785ced0f9de0e0f78989898989896040516112bf9695949392919061352f565b60405180910390a25050505050505050565b601160205281600052604060002081815481106112ed57600080fd5b6000918252602090912060069091020180546001820154600283015460038401546004850180549497506001600160a01b03909316955090939092909190611334906133c7565b80601f0160208091040260200160405190810160405280929190818152602001828054611360906133c7565b80156113ad5780601f10611382576101008083540402835291602001916113ad565b820191906000526020600020905b81548152906001019060200180831161139057829003601f168201915b5050505050908060050154905086565b606060018054610a7d906133c7565b60606000600f84846040516113e2929190613330565b908152604051908190036020019020549050806114115760405162461bcd60e51b81526004016108ba90613340565b600081815260106020908152604080832080548251818502810185019093528083529193909284015b82821015611527578382906000526020600020906004020160405180608001604052908160008201805461146d906133c7565b80601f0160208091040260200160405190810160405280929190818152602001828054611499906133c7565b80156114e65780601f106114bb576101008083540402835291602001916114e6565b820191906000526020600020905b8154815290600101906020018083116114c957829003601f168201915b5050509183525050600182810154602080840191909152600284015460ff16151560408401526003909301546060909201919091529183529201910161143a565b5050505091505092915050565b610a6a338383611ee6565b611547611e67565b6000600f868660405161155b929190613330565b9081526040519081900360200190205490508061158a5760405162461bcd60e51b81526004016108ba90613340565b60106000828152602001908152602001600020604051806080016040528086868080601f016020809104026020016040519081016040528093929190818152602001838380828437600092018290525093855250505060208083018790526040830182905260609092018190528354600181018555938152208151919260040201908190611618908261346f565b506020820151600182015560408083015160028301805460ff19169115159190911790556060909201516003909101555181907feaf918692a3ebe95e367a2a077df04e55879b69c3136d6e0966242b0fd9b5fd9906116809089908990899089908990613575565b60405180910390a2505050505050565b611698611d22565b6000600f83836040516116ac929190613330565b908152604051908190036020019020549050806116db5760405162461bcd60e51b81526004016108ba90613340565b6000341161172b5760405162461bcd60e51b815260206004820152601960248201527f446f6e6174696f6e206d75737420626520706f7369746976650000000000000060448201526064016108ba565b6000818152600e60205260409020600781015460ff166117815760405162461bcd60e51b8152602060048201526011602482015270436175736520697320696e61637469766560781b60448201526064016108ba565b6007810154610100900460ff16156117db5760405162461bcd60e51b815260206004820152601c60248201527f43617573652074617267657420616c726561647920726561636865640000000060448201526064016108ba565b600082815260126020908152604080832033845290915281205490036118135760068101805490600061180d836135c5565b91905055505b3481600501600082825461182791906135de565b90915550506000828152601260209081526040808320338452909152812080543492906118559084906135de565b9250508190555034600d600082825461186e91906135de565b9091555060009050670de0b6b3a764000061188a3460646135f1565b6118949190613608565b336000908152601760205260408120805492935083929091906118b89084906135de565b909155505033600081815260116020908152604091829020825160c081018452348152808301949094524284840152606084018790528251601f8901839004830281018301909352878352929160808301918990899081908401838280828437600092018290525093855250505060209182018590528354600180820186559482529082902083516006909202019081559082015192810180546001600160a01b0319166001600160a01b0390941693909317909255604081015160028301556060810151600383015560808101519091906004820190611999908261346f565b5060a0820151816005015550506119e68386868080601f016020809104026020016040519081016040528093929190818152602001838380828437600092019190915250611f8592505050565b8160040154826005015410611a4f5760078201805461ff0019166101001790556005820154600683015460405185927f6c3a3b192a76e65afc3989f2f34cce7ab7c331bc978a2dec30eef64a8906f07092611a46928a928a92909161362a565b60405180910390a25b611a58336120c5565b82336001600160a01b03167f54cac689bbedc1a4f5f4918ef6439b70fa27ee38ccabe824d571b772ab03c3ff8787348642604051611a9a959493929190613651565b60405180910390a333600081815260176020526040908190205490518592917f8e93e85717af7b7b2bd30885833b3b4f8078ede16f6e551ad82727afc0c7506a91611ae991908a908a90613682565b60405180910390a3505050610a6a6001600b55565b611b09848484610c9c565b610d213385858585612462565b6060611b2182611d4c565b506000611b3960408051602081019091526000815290565b90506000815111611b595760405180602001604052806000815250611b84565b80611b638461258c565b604051602001611b749291906136a5565b6040516020818303038152906040525b9392505050565b60106020528160005260406000208181548110611ba757600080fd5b906000526020600020906004020160009150915050806000018054611bcb906133c7565b80601f0160208091040260200160405190810160405280929190818152602001828054611bf7906133c7565b8015611c445780601f10611c1957610100808354040283529160200191611c44565b820191906000526020600020905b815481529060010190602001808311611c2757829003601f168201915b50505050600183015460028401546003909401549293909260ff909116915084565b6001600160a01b03918216600090815260056020908152604080832093909416825291909152205460ff1690565b611c9c611e67565b6001600160a01b038116611cc657604051631e4fbdf760e01b8152600060048201526024016108ba565b611ccf81611e94565b50565b60006001600160e01b031982166380ac58cd60e01b1480611d0357506001600160e01b03198216635b5e139f60e01b145b8061086957506301ffc9a760e01b6001600160e01b0319831614610869565b6002600b5403611d4557604051633ee5aeb560e01b815260040160405180910390fd5b6002600b55565b6000818152600260205260408120546001600160a01b03168061086957604051637e27328960e01b8152600481018490526024016108ba565b610eed838383600161261f565b600080611da0858585612725565b90506001600160a01b038116611dfd57611df884600880546000838152600960205260408120829055600182018355919091527ff3f7a9fe364faab93b216da50a3214154f22a0a2b415b23a84c8169e8b636ee30155565b611e20565b846001600160a01b0316816001600160a01b031614611e2057611e20818561281e565b6001600160a01b038516611e3c57611e378461289f565b611e5f565b846001600160a01b0316816001600160a01b031614611e5f57611e5f858561294e565b949350505050565b600a546001600160a01b03163314610fb05760405163118cdaa760e01b81523360048201526024016108ba565b600a80546001600160a01b038381166001600160a01b0319831681179093556040519116919082907f8be0079c531659141344cd1fd0a4f28419497f9722a3daafe3b4186f6b6457e090600090a35050565b6001600160a01b038216611f1857604051630b61174360e31b81526001600160a01b03831660048201526024016108ba565b6001600160a01b03838116600081815260056020908152604080832094871680845294825291829020805460ff191686151590811790915591519182527f17307eab39ab6107e8899845ad3d59bd9653f200f220920489ca2b5937696c31910160405180910390a3505050565b6000828152601060209081526040808320600e90925282206005015490915b82548110156120be57828181548110611fbf57611fbf613401565b600091825260209091206002600490920201015460ff161580156120065750828181548110611ff057611ff0613401565b9060005260206000209060040201600101548210155b156120ac57600183828154811061201f5761201f613401565b906000526020600020906004020160020160006101000a81548160ff0219169083151502179055504283828154811061205a5761205a613401565b906000526020600020906004020160030181905550847f86c221d9c90d20cf6c5cf54a39e45af8042c76d8d1ce0774c74d1c72ce4f50c08583426040516120a3939291906136d4565b60405180910390a25b806120b6816135c5565b915050611fa4565b5050505050565b6001600160a01b038116600090815260116020908152604080832080548251818502810185019093528083528493849084015b828210156121fb5760008481526020908190206040805160c081018252600686029092018054835260018101546001600160a01b03169383019390935260028301549082015260038201546060820152600482018054919291608084019190612160906133c7565b80601f016020809104026020016040519081016040528092919081815260200182805461218c906133c7565b80156121d95780601f106121ae576101008083540402835291602001916121d9565b820191906000526020600020905b8154815290600101906020018083116121bc57829003601f168201915b50505050508152602001600582015481525050815260200190600101906120f8565b50505050905060005b815181101561224a5781818151811061221f5761221f613401565b6020026020010151600001518361223691906135de565b925080612242816135c5565b915050612204565b50674563918244f40000821015801561227c57506001600160a01b03831660009081526016602052604090205460ff16155b156122d2576122aa83604051806040016040528060078152602001661112505353d39160ca1b81525061299e565b6001600160a01b0383166000908152601660205260409020805460ff19166001179055505050565b670de0b6b3a7640000821015801561230357506001600160a01b03831660009081526015602052604090205460ff16155b156123565761232e836040518060400160405280600481526020016311d3d31160e21b81525061299e565b6001600160a01b0383166000908152601560205260409020805460ff19166001179055505050565b6706f05b59d3b20000821015801561238757506001600160a01b03831660009081526014602052604090205460ff16155b156123dc576123b4836040518060400160405280600681526020016529a4a62b22a960d11b81525061299e565b6001600160a01b0383166000908152601460205260409020805460ff19166001179055505050565b67016345785d8a0000821015801561240d57506001600160a01b03831660009081526013602052604090205460ff16155b15610eed5761243a836040518060400160405280600681526020016542524f4e5a4560d01b81525061299e565b6001600160a01b0383166000908152601360205260409020805460ff19166001179055505050565b6001600160a01b0383163b156120be57604051630a85bd0160e11b81526001600160a01b0384169063150b7a02906124a49088908890879087906004016136f9565b6020604051808303816000875af19250505080156124df575060408051601f3d908101601f191682019092526124dc91810190613736565b60015b612548573d80801561250d576040519150601f19603f3d011682016040523d82523d6000602084013e612512565b606091505b50805160000361254057604051633250574960e11b81526001600160a01b03851660048201526024016108ba565b805181602001fd5b6001600160e01b03198116630a85bd0160e11b1461258457604051633250574960e11b81526001600160a01b03851660048201526024016108ba565b505050505050565b6060600061259983612a08565b600101905060008167ffffffffffffffff8111156125b9576125b9613137565b6040519080825280601f01601f1916602001820160405280156125e3576020820181803683370190505b5090508181016020015b600019016f181899199a1a9b1b9c1cb0b131b232b360811b600a86061a8153600a85049450846125ed57509392505050565b808061263357506001600160a01b03821615155b156126f557600061264384611d4c565b90506001600160a01b0383161580159061266f5750826001600160a01b0316816001600160a01b031614155b801561268257506126808184611c66565b155b156126ab5760405163a9fbf51f60e01b81526001600160a01b03841660048201526024016108ba565b81156126f35783856001600160a01b0316826001600160a01b03167f8c5be1e5ebec7d5bd14f71427d1e84f3dd0314c0f7b2291e5b200ac8c7c3b92560405160405180910390a45b505b5050600090815260046020526040902080546001600160a01b0319166001600160a01b0392909216919091179055565b6000828152600260205260408120546001600160a01b039081169083161561275257612752818486612ae0565b6001600160a01b038116156127905761276f60008560008061261f565b6001600160a01b038116600090815260036020526040902080546000190190555b6001600160a01b038516156127bf576001600160a01b0385166000908152600360205260409020805460010190555b60008481526002602052604080822080546001600160a01b0319166001600160a01b0389811691821790925591518793918516917fddf252ad1be2c89b69c2b068fc378daa952ba7f163c4a11628f55a4df523b3ef91a4949350505050565b600061282983610f56565b6000838152600760209081526040808320546001600160a01b038816845260069092529091209192509081831461288057600083815260208281526040808320548584528184208190558352600790915290208290555b6000938452600760209081526040808620869055938552525081205550565b6008546000906128b190600190613753565b600083815260096020526040812054600880549394509092849081106128d9576128d9613401565b9060005260206000200154905080600883815481106128fa576128fa613401565b600091825260208083209091019290925582815260099091526040808220849055858252812055600880548061293257612932613766565b6001900381819060005260206000200160009055905550505050565b6000600161295b84610f56565b6129659190613753565b6001600160a01b039093166000908152600660209081526040808320868452825280832085905593825260079052919091209190915550565b600c546129ab8382612b44565b600c80549060006129bb836135c5565b9190505550826001600160a01b03167fd06cdb8a5a561c4954f371279402e0b6e4fdff028968b69de562b3823dcea71683836040516129fb92919061377c565b60405180910390a2505050565b60008072184f03e93ff9f4daa797ed6e38ed64bf6a1f0160401b8310612a475772184f03e93ff9f4daa797ed6e38ed64bf6a1f0160401b830492506040015b6d04ee2d6d415b85acef81000000008310612a73576d04ee2d6d415b85acef8100000000830492506020015b662386f26fc100008310612a9157662386f26fc10000830492506010015b6305f5e1008310612aa9576305f5e100830492506008015b6127108310612abd57612710830492506004015b60648310612acf576064830492506002015b600a83106108695760010192915050565b612aeb838383612b5e565b610eed576001600160a01b038316612b1957604051637e27328960e01b8152600481018290526024016108ba565b60405163177e802f60e01b81526001600160a01b0383166004820152602481018290526044016108ba565b610a6a828260405180602001604052806000815250612bc1565b60006001600160a01b03831615801590611e5f5750826001600160a01b0316846001600160a01b03161480612b985750612b988484611c66565b80611e5f5750506000908152600460205260409020546001600160a01b03908116911614919050565b612bcb8383612bd9565b610eed336000858585612462565b6001600160a01b038216612c0357604051633250574960e11b8152600060048201526024016108ba565b6000612c1183836000611d92565b90506001600160a01b03811615610eed576040516339e3563760e11b8152600060048201526024016108ba565b6001600160e01b031981168114611ccf57600080fd5b600060208284031215612c6657600080fd5b8135611b8481612c3e565b60008083601f840112612c8357600080fd5b50813567ffffffffffffffff811115612c9b57600080fd5b602083019150836020828501011115612cb357600080fd5b9250929050565b60008060208385031215612ccd57600080fd5b823567ffffffffffffffff811115612ce457600080fd5b612cf085828601612c71565b90969095509350505050565b60005b83811015612d17578181015183820152602001612cff565b50506000910152565b60008151808452612d38816020860160208601612cfc565b601f01601f19169290920160200192915050565b602081526000611b846020830184612d20565b600060208284031215612d7157600080fd5b5035919050565b6001600160a01b0381168114611ccf57600080fd5b60008060408385031215612da057600080fd5b8235612dab81612d78565b946020939093013593505050565b60006101208b8352806020840152612dd38184018c612d20565b90508281036040840152612de7818b612d20565b6001600160a01b039990991660608401525050608081019590955260a085019390935260c0840191909152151560e08301521515610100909101529392505050565b600080600060608486031215612e3e57600080fd5b8335612e4981612d78565b92506020840135612e5981612d78565b929592945050506040919091013590565b600060208284031215612e7c57600080fd5b8135611b8481612d78565b60006020808301818452808551808352604092508286019150828160051b87010184880160005b83811015612f2657888303603f19018552815180518452878101516001600160a01b03168885015286810151878501526060808201519085015260808082015160c08287018190529190612f0483880182612d20565b60a0948501519790940196909652505094870194925090860190600101612eae565b509098975050505050505050565b60008060008060008060808789031215612f4d57600080fd5b863567ffffffffffffffff80821115612f6557600080fd5b612f718a838b01612c71565b90985096506020890135915080821115612f8a57600080fd5b50612f9789828a01612c71565b9095509350506040870135612fab81612d78565b80925050606087013590509295509295509295565b86815260018060a01b038616602082015284604082015283606082015260c060808201526000612ff360c0830185612d20565b90508260a0830152979650505050505050565b60006020808301818452808551808352604092508286019150828160051b87010184880160005b83811015612f2657603f1989840301855281516080815181865261305382870182612d20565b838b0151878c01528984015115158a88015260609384015193909601929092525050938601939086019060010161302d565b6000806040838503121561309857600080fd5b82356130a381612d78565b9150602083013580151581146130b857600080fd5b809150509250929050565b6000806000806000606086880312156130db57600080fd5b853567ffffffffffffffff808211156130f357600080fd5b6130ff89838a01612c71565b9097509550602088013591508082111561311857600080fd5b5061312588828901612c71565b96999598509660400135949350505050565b634e487b7160e01b600052604160045260246000fd5b600067ffffffffffffffff8084111561316857613168613137565b604051601f8501601f19908116603f0116810190828211818310171561319057613190613137565b816040528093508581528686860111156131a957600080fd5b858560208301376000602087830101525050509392505050565b6000602082840312156131d557600080fd5b813567ffffffffffffffff8111156131ec57600080fd5b8201601f810184136131fd57600080fd5b611e5f8482356020840161314d565b6000806000806080858703121561322257600080fd5b843561322d81612d78565b9350602085013561323d81612d78565b925060408501359150606085013567ffffffffffffffff81111561326057600080fd5b8501601f8101871361327157600080fd5b6132808782356020840161314d565b91505092959194509250565b6000806040838503121561329f57600080fd5b8235915060208301356130b881612d78565b600080604083850312156132c457600080fd5b50508035926020909101359150565b6080815260006132e66080830187612d20565b6020830195909552509115156040830152606090910152919050565b6000806040838503121561331557600080fd5b823561332081612d78565b915060208301356130b881612d78565b8183823760009101908152919050565b60208082526014908201527310d85d5cd948191bd95cc81b9bdd08195e1a5cdd60621b604082015260600190565b81835281816020850137506000828201602090810191909152601f909101601f19169091010190565b6060815260006133ab60608301868861336e565b6001600160a01b03949094166020830152506040015292915050565b600181811c908216806133db57607f821691505b6020821081036133fb57634e487b7160e01b600052602260045260246000fd5b50919050565b634e487b7160e01b600052603260045260246000fd5b82848237909101908152602001919050565b601f821115610eed57600081815260208120601f850160051c810160208610156134505750805b601f850160051c820191505b818110156125845782815560010161345c565b815167ffffffffffffffff81111561348957613489613137565b61349d8161349784546133c7565b84613429565b602080601f8311600181146134d257600084156134ba5750858301515b600019600386901b1c1916600185901b178555612584565b600085815260208120601f198616915b82811015613501578886015182559484019460019091019084016134e2565b508582101561351f5787850151600019600388901b60f8161c191681555b5050505050600190811b01905550565b60808152600061354360808301888a61336e565b828103602084015261355681878961336e565b6001600160a01b03959095166040840152505060600152949350505050565b60608152600061358960608301878961336e565b828103602084015261359c81868861336e565b9150508260408301529695505050505050565b634e487b7160e01b600052601160045260246000fd5b6000600182016135d7576135d76135af565b5060010190565b80820180821115610869576108696135af565b8082028115828204841417610869576108696135af565b60008261362557634e487b7160e01b600052601260045260246000fd5b500490565b60608152600061363e60608301868861336e565b6020830194909452506040015292915050565b60808152600061366560808301878961336e565b602083019590955250604081019290925260609091015292915050565b83815260406020820152600061369c60408301848661336e565b95945050505050565b600083516136b7818460208801612cfc565b8351908301906136cb818360208801612cfc565b01949350505050565b6060815260006136e76060830186612d20565b60208301949094525060400152919050565b6001600160a01b038581168252841660208201526040810183905260806060820181905260009061372c90830184612d20565b9695505050505050565b60006020828403121561374857600080fd5b8151611b8481612c3e565b81810381811115610869576108696135af565b634e487b7160e01b600052603160045260246000fd5b60408152600061378f6040830185612d20565b9050826020830152939250505056fea26469706673582212208192fc9fe7ecc689f1a4a773cf12e6d5985420bdf2c99847ec69654f2c90b50b64736f6c63430008140033",
  "linkReferences": {},
  "deployedLinkReferences": {}
}