{
  "_format": "hh-sol-artifact-1",
  "contractName": "TransparentDonationTracker",
  "sourceName": "contracts/Donation.sol",
  "abi": [
    {
      "inputs": [],
      "stateMutability": "nonpayable",
      "type": "constructor"
    },
    {
      "inputs": [],
      "name": "ERC721EnumerableForbiddenBatchMint",
      "type": "error"
    },
    {
      "inputs": [
        {
          "internalType": "address",
          "name": "sender",
          "type": "address"
        },
        {
          "internalType": "uint256",
          "name": "tokenId",
          "type": "uint256"
        },
        {
          "internalType": "address",
          "name": "owner",
          "type": "address"
        }
      ],
      "name": "ERC721IncorrectOwner",
      "type": "error"
    },
    {
      "inputs": [
        {
          "internalType": "address",
          "name": "operator",
          "type": "address"
        },
        {
          "internalType": "uint256",
          "name": "tokenId",
          "type": "uint256"
        }
      ],
      "name": "ERC721InsufficientApproval",
      "type": "error"
    },
    {
      "inputs": [
        {
          "internalType": "address",
          "name": "approver",
          "type": "address"
        }
      ],
      "name": "ERC721InvalidApprover",
      "type": "error"
    },
    {
      "inputs": [
        {
          "internalType": "address",
          "name": "operator",
          "type": "address"
        }
      ],
      "name": "ERC721InvalidOperator",
      "type": "error"
    },
    {
      "inputs": [
        {
          "internalType": "address",
          "name": "owner",
          "type": "address"
        }
      ],
      "name": "ERC721InvalidOwner",
      "type": "error"
    },
    {
      "inputs": [
        {
          "internalType": "address",
          "name": "receiver",
          "type": "address"
        }
      ],
      "name": "ERC721InvalidReceiver",
      "type": "error"
    },
    {
      "inputs": [
        {
          "internalType": "address",
          "name": "sender",
          "type": "address"
        }
      ],
      "name": "ERC721InvalidSender",
      "type": "error"
    },
    {
      "inputs": [
        {
          "internalType": "uint256",
          "name": "tokenId",
          "type": "uint256"
        }
      ],
      "name": "ERC721NonexistentToken",
      "type": "error"
    },
    {
      "inputs": [
        {
          "internalType": "address",
          "name": "owner",
          "type": "address"
        },
        {
          "internalType": "uint256",
          "name": "index",
          "type": "uint256"
        }
      ],
      "name": "ERC721OutOfBoundsIndex",
      "type": "error"
    },
    {
      "inputs": [
        {
          "internalType": "address",
          "name": "owner",
          "type": "address"
        }
      ],
      "name": "OwnableInvalidOwner",
      "type": "error"
    },
    {
      "inputs": [
        {
          "internalType": "address",
          "name": "account",
          "type": "address"
        }
      ],
      "name": "OwnableUnauthorizedAccount",
      "type": "error"
    },
    {
      "inputs": [],
      "name": "ReentrancyGuardReentrantCall",
      "type": "error"
    },
    {
      "anonymous": false,
      "inputs": [
        {
          "indexed": true,
          "internalType": "address",
          "name": "owner",
          "type": "address"
        },
        {
          "indexed": true,
          "internalType": "address",
          "name": "approved",
          "type": "address"
        },
        {
          "indexed": true,
          "internalType": "uint256",
          "name": "tokenId",
          "type": "uint256"
        }
      ],
      "name": "Approval",
      "type": "event"
    },
    {
      "anonymous": false,
      "inputs": [
        {
          "indexed": true,
          "internalType": "address",
          "name": "owner",
          "type": "address"
        },
        {
          "indexed": true,
          "internalType": "address",
          "name": "operator",
          "type": "address"
        },
        {
          "indexed": false,
          "internalType": "bool",
          "name": "approved",
          "type": "bool"
        }
      ],
      "name": "ApprovalForAll",
      "type": "event"
    },
    {
      "anonymous": false,
      "inputs": [
        {
          "indexed": true,
          "internalType": "address",
          "name": "donor",
          "type": "address"
        },
        {
          "indexed": false,
          "internalType": "string",
          "name": "badgeType",
          "type": "string"
        },
        {
          "indexed": false,
          "internalType": "uint256",
          "name": "tokenId",
          "type": "uint256"
        }
      ],
      "name": "BadgeEarned",
      "type": "event"
    },
    {
      "anonymous": false,
      "inputs": [
        {
          "indexed": true,
          "internalType": "string",
          "name": "causeName",
          "type": "string"
        },
        {
          "indexed": false,
          "internalType": "string",
          "name": "description",
          "type": "string"
        },
        {
          "indexed": false,
          "internalType": "address",
          "name": "beneficiary",
          "type": "address"
        },
        {
          "indexed": false,
          "internalType": "uint256",
          "name": "targetAmount",
          "type": "uint256"
        }
      ],
      "name": "CauseCreated",
      "type": "event"
    },
    {
      "anonymous": false,
      "inputs": [
        {
          "indexed": true,
          "internalType": "string",
          "name": "cause",
          "type": "string"
        },
        {
          "indexed": false,
          "internalType": "uint256",
          "name": "finalAmount",
          "type": "uint256"
        },
        {
          "indexed": false,
          "internalType": "uint256",
          "name": "donorCount",
          "type": "uint256"
        }
      ],
      "name": "CauseTargetReached",
      "type": "event"
    },
    {
      "anonymous": false,
      "inputs": [
        {
          "indexed": true,
          "internalType": "address",
          "name": "donor",
          "type": "address"
        },
        {
          "indexed": true,
          "internalType": "string",
          "name": "cause",
          "type": "string"
        },
        {
          "indexed": false,
          "internalType": "uint256",
          "name": "amount",
          "type": "uint256"
        },
        {
          "indexed": false,
          "internalType": "uint256",
          "name": "impactScore",
          "type": "uint256"
        },
        {
          "indexed": false,
          "internalType": "uint256",
          "name": "timestamp",
          "type": "uint256"
        }
      ],
      "name": "DonationReceived",
      "type": "event"
    },
    {
      "anonymous": false,
      "inputs": [
        {
          "indexed": true,
          "internalType": "string",
          "name": "cause",
          "type": "string"
        },
        {
          "indexed": false,
          "internalType": "address",
          "name": "beneficiary",
          "type": "address"
        },
        {
          "indexed": false,
          "internalType": "uint256",
          "name": "amount",
          "type": "uint256"
        }
      ],
      "name": "FundsWithdrawn",
      "type": "event"
    },
    {
      "anonymous": false,
      "inputs": [
        {
          "indexed": true,
          "internalType": "address",
          "name": "donor",
          "type": "address"
        },
        {
          "indexed": false,
          "internalType": "uint256",
          "name": "newScore",
          "type": "uint256"
        },
        {
          "indexed": false,
          "internalType": "string",
          "name": "cause",
          "type": "string"
        }
      ],
      "name": "ImpactScoreUpdated",
      "type": "event"
    },
    {
      "anonymous": false,
      "inputs": [
        {
          "indexed": true,
          "internalType": "string",
          "name": "cause",
          "type": "string"
        },
        {
          "indexed": false,
          "internalType": "string",
          "name": "description",
          "type": "string"
        },
        {
          "indexed": false,
          "internalType": "uint256",
          "name": "targetAmount",
          "type": "uint256"
        }
      ],
      "name": "MilestoneAdded",
      "type": "event"
    },
    {
      "anonymous": false,
      "inputs": [
        {
          "indexed": true,
          "internalType": "string",
          "name": "cause",
          "type": "string"
        },
        {
          "indexed": false,
          "internalType": "uint256",
          "name": "milestoneIndex",
          "type": "uint256"
        },
        {
          "indexed": false,
          "internalType": "uint256",
          "name": "completionTime",
          "type": "uint256"
        }
      ],
      "name": "MilestoneCompleted",
      "type": "event"
    },
    {
      "anonymous": false,
      "inputs": [
        {
          "indexed": true,
          "internalType": "address",
          "name": "previousOwner",
          "type": "address"
        },
        {
          "indexed": true,
          "internalType": "address",
          "name": "newOwner",
          "type": "address"
        }
      ],
      "name": "OwnershipTransferred",
      "type": "event"
    },
    {
      "anonymous": false,
      "inputs": [
        {
          "indexed": true,
          "internalType": "address",
          "name": "from",
          "type": "address"
        },
        {
          "indexed": true,
          "internalType": "address",
          "name": "to",
          "type": "address"
        },
        {
          "indexed": true,
          "internalType": "uint256",
          "name": "tokenId",
          "type": "uint256"
        }
      ],
      "name": "Transfer",
      "type": "event"
    },
    {
      "inputs": [],
      "name": "BRONZE_THRESHOLD",
      "outputs": [
        {
          "internalType": "uint256",
          "name": "",
          "type": "uint256"
        }
      ],
      "stateMutability": "view",
      "type": "function"
    },
    {
      "inputs": [],
      "name": "DIAMOND_THRESHOLD",
      "outputs": [
        {
          "internalType": "uint256",
          "name": "",
          "type": "uint256"
        }
      ],
      "stateMutability": "view",
      "type": "function"
    },
    {
      "inputs": [],
      "name": "GOLD_THRESHOLD",
      "outputs": [
        {
          "internalType": "uint256",
          "name": "",
          "type": "uint256"
        }
      ],
      "stateMutability": "view",
      "type": "function"
    },
    {
      "inputs": [],
      "name": "SILVER_THRESHOLD",
      "outputs": [
        {
          "internalType": "uint256",
          "name": "",
          "type": "uint256"
        }
      ],
      "stateMutability": "view",
      "type": "function"
    },
    {
      "inputs": [
        {
          "internalType": "string",
          "name": "cause",
          "type": "string"
        },
        {
          "internalType": "string",
          "name": "description",
          "type": "string"
        },
        {
          "internalType": "uint256",
          "name": "targetAmount",
          "type": "uint256"
        }
      ],
      "name": "addMilestone",
      "outputs": [],
      "stateMutability": "nonpayable",
      "type": "function"
    },
    {
      "inputs": [
        {
          "internalType": "address",
          "name": "to",
          "type": "address"
        },
        {
          "internalType": "uint256",
          "name": "tokenId",
          "type": "uint256"
        }
      ],
      "name": "approve",
      "outputs": [],
      "stateMutability": "nonpayable",
      "type": "function"
    },
    {
      "inputs": [
        {
          "internalType": "address",
          "name": "owner",
          "type": "address"
        }
      ],
      "name": "balanceOf",
      "outputs": [
        {
          "internalType": "uint256",
          "name": "",
          "type": "uint256"
        }
      ],
      "stateMutability": "view",
      "type": "function"
    },
    {
      "inputs": [
        {
          "internalType": "string",
          "name": "",
          "type": "string"
        },
        {
          "internalType": "address",
          "name": "",
          "type": "address"
        }
      ],
      "name": "causeDonorAmount",
      "outputs": [
        {
          "internalType": "uint256",
          "name": "",
          "type": "uint256"
        }
      ],
      "stateMutability": "view",
      "type": "function"
    },
    {
      "inputs": [
        {
          "internalType": "string",
          "name": "",
          "type": "string"
        },
        {
          "internalType": "uint256",
          "name": "",
          "type": "uint256"
        }
      ],
      "name": "causeMilestones",
      "outputs": [
        {
          "internalType": "string",
          "name": "description",
          "type": "string"
        },
        {
          "internalType": "uint256",
          "name": "targetAmount",
          "type": "uint256"
        },
        {
          "internalType": "bool",
          "name": "isCompleted",
          "type": "bool"
        },
        {
          "internalType": "uint256",
          "name": "completionTime",
          "type": "uint256"
        }
      ],
      "stateMutability": "view",
      "type": "function"
    },
    {
      "inputs": [
        {
          "internalType": "string",
          "name": "",
          "type": "string"
        }
      ],
      "name": "causes",
      "outputs": [
        {
          "internalType": "string",
          "name": "name",
          "type": "string"
        },
        {
          "internalType": "string",
          "name": "description",
          "type": "string"
        },
        {
          "internalType": "address payable",
          "name": "beneficiary",
          "type": "address"
        },
        {
          "internalType": "uint256",
          "name": "targetAmount",
          "type": "uint256"
        },
        {
          "internalType": "uint256",
          "name": "currentAmount",
          "type": "uint256"
        },
        {
          "internalType": "uint256",
          "name": "donorCount",
          "type": "uint256"
        },
        {
          "internalType": "bool",
          "name": "isActive",
          "type": "bool"
        },
        {
          "internalType": "bool",
          "name": "targetReached",
          "type": "bool"
        }
      ],
      "stateMutability": "view",
      "type": "function"
    },
    {
      "inputs": [
        {
          "internalType": "string",
          "name": "name",
          "type": "string"
        },
        {
          "internalType": "string",
          "name": "description",
          "type": "string"
        },
        {
          "internalType": "address payable",
          "name": "beneficiary",
          "type": "address"
        },
        {
          "internalType": "uint256",
          "name": "targetAmount",
          "type": "uint256"
        }
      ],
      "name": "createCause",
      "outputs": [],
      "stateMutability": "nonpayable",
      "type": "function"
    },
    {
      "inputs": [
        {
          "internalType": "string",
          "name": "cause",
          "type": "string"
        }
      ],
      "name": "donate",
      "outputs": [],
      "stateMutability": "payable",
      "type": "function"
    },
    {
      "inputs": [
        {
          "internalType": "address",
          "name": "",
          "type": "address"
        },
        {
          "internalType": "uint256",
          "name": "",
          "type": "uint256"
        }
      ],
      "name": "donorHistory",
      "outputs": [
        {
          "internalType": "uint256",
          "name": "amount",
          "type": "uint256"
        },
        {
          "internalType": "address",
          "name": "donor",
          "type": "address"
        },
        {
          "internalType": "uint256",
          "name": "timestamp",
          "type": "uint256"
        },
        {
          "internalType": "string",
          "name": "cause",
          "type": "string"
        },
        {
          "internalType": "uint256",
          "name": "impactScore",
          "type": "uint256"
        }
      ],
      "stateMutability": "view",
      "type": "function"
    },
    {
      "inputs": [
        {
          "internalType": "address",
          "name": "",
          "type": "address"
        }
      ],
      "name": "donorImpactScore",
      "outputs": [
        {
          "internalType": "uint256",
          "name": "",
          "type": "uint256"
        }
      ],
      "stateMutability": "view",
      "type": "function"
    },
    {
      "inputs": [
        {
          "internalType": "uint256",
          "name": "tokenId",
          "type": "uint256"
        }
      ],
      "name": "getApproved",
      "outputs": [
        {
          "internalType": "address",
          "name": "",
          "type": "address"
        }
      ],
      "stateMutability": "view",
      "type": "function"
    },
    {
      "inputs": [
        {
          "internalType": "string",
          "name": "cause",
          "type": "string"
        }
      ],
      "name": "getCauseMilestones",
      "outputs": [
        {
          "components": [
            {
              "internalType": "string",
              "name": "description",
              "type": "string"
            },
            {
              "internalType": "uint256",
              "name": "targetAmount",
              "type": "uint256"
            },
            {
              "internalType": "bool",
              "name": "isCompleted",
              "type": "bool"
            },
            {
              "internalType": "uint256",
              "name": "completionTime",
              "type": "uint256"
            }
          ],
          "internalType": "struct TransparentDonationTracker.Milestone[]",
          "name": "",
          "type": "tuple[]"
        }
      ],
      "stateMutability": "view",
      "type": "function"
    },
    {
      "inputs": [
        {
          "internalType": "address",
          "name": "donor",
          "type": "address"
        }
      ],
      "name": "getDonorHistory",
      "outputs": [
        {
          "components": [
            {
              "internalType": "uint256",
              "name": "amount",
              "type": "uint256"
            },
            {
              "internalType": "address",
              "name": "donor",
              "type": "address"
            },
            {
              "internalType": "uint256",
              "name": "timestamp",
              "type": "uint256"
            },
            {
              "internalType": "string",
              "name": "cause",
              "type": "string"
            },
            {
              "internalType": "uint256",
              "name": "impactScore",
              "type": "uint256"
            }
          ],
          "internalType": "struct TransparentDonationTracker.Donation[]",
          "name": "",
          "type": "tuple[]"
        }
      ],
      "stateMutability": "view",
      "type": "function"
    },
    {
      "inputs": [
        {
          "internalType": "address",
          "name": "donor",
          "type": "address"
        }
      ],
      "name": "getDonorImpactScore",
      "outputs": [
        {
          "internalType": "uint256",
          "name": "",
          "type": "uint256"
        }
      ],
      "stateMutability": "view",
      "type": "function"
    },
    {
      "inputs": [
        {
          "internalType": "address",
          "name": "",
          "type": "address"
        }
      ],
      "name": "hasBronzeBadge",
      "outputs": [
        {
          "internalType": "bool",
          "name": "",
          "type": "bool"
        }
      ],
      "stateMutability": "view",
      "type": "function"
    },
    {
      "inputs": [
        {
          "internalType": "address",
          "name": "",
          "type": "address"
        }
      ],
      "name": "hasDiamondBadge",
      "outputs": [
        {
          "internalType": "bool",
          "name": "",
          "type": "bool"
        }
      ],
      "stateMutability": "view",
      "type": "function"
    },
    {
      "inputs": [
        {
          "internalType": "address",
          "name": "",
          "type": "address"
        }
      ],
      "name": "hasGoldBadge",
      "outputs": [
        {
          "internalType": "bool",
          "name": "",
          "type": "bool"
        }
      ],
      "stateMutability": "view",
      "type": "function"
    },
    {
      "inputs": [
        {
          "internalType": "address",
          "name": "",
          "type": "address"
        }
      ],
      "name": "hasSilverBadge",
      "outputs": [
        {
          "internalType": "bool",
          "name": "",
          "type": "bool"
        }
      ],
      "stateMutability": "view",
      "type": "function"
    },
    {
      "inputs": [
        {
          "internalType": "address",
          "name": "owner",
          "type": "address"
        },
        {
          "internalType": "address",
          "name": "operator",
          "type": "address"
        }
      ],
      "name": "isApprovedForAll",
      "outputs": [
        {
          "internalType": "bool",
          "name": "",
          "type": "bool"
        }
      ],
      "stateMutability": "view",
      "type": "function"
    },
    {
      "inputs": [],
      "name": "name",
      "outputs": [
        {
          "internalType": "string",
          "name": "",
          "type": "string"
        }
      ],
      "stateMutability": "view",
      "type": "function"
    },
    {
      "inputs": [],
      "name": "owner",
      "outputs": [
        {
          "internalType": "address",
          "name": "",
          "type": "address"
        }
      ],
      "stateMutability": "view",
      "type": "function"
    },
    {
      "inputs": [
        {
          "internalType": "uint256",
          "name": "tokenId",
          "type": "uint256"
        }
      ],
      "name": "ownerOf",
      "outputs": [
        {
          "internalType": "address",
          "name": "",
          "type": "address"
        }
      ],
      "stateMutability": "view",
      "type": "function"
    },
    {
      "inputs": [],
      "name": "renounceOwnership",
      "outputs": [],
      "stateMutability": "nonpayable",
      "type": "function"
    },
    {
      "inputs": [
        {
          "internalType": "address",
          "name": "from",
          "type": "address"
        },
        {
          "internalType": "address",
          "name": "to",
          "type": "address"
        },
        {
          "internalType": "uint256",
          "name": "tokenId",
          "type": "uint256"
        }
      ],
      "name": "safeTransferFrom",
      "outputs": [],
      "stateMutability": "nonpayable",
      "type": "function"
    },
    {
      "inputs": [
        {
          "internalType": "address",
          "name": "from",
          "type": "address"
        },
        {
          "internalType": "address",
          "name": "to",
          "type": "address"
        },
        {
          "internalType": "uint256",
          "name": "tokenId",
          "type": "uint256"
        },
        {
          "internalType": "bytes",
          "name": "data",
          "type": "bytes"
        }
      ],
      "name": "safeTransferFrom",
      "outputs": [],
      "stateMutability": "nonpayable",
      "type": "function"
    },
    {
      "inputs": [
        {
          "internalType": "address",
          "name": "operator",
          "type": "address"
        },
        {
          "internalType": "bool",
          "name": "approved",
          "type": "bool"
        }
      ],
      "name": "setApprovalForAll",
      "outputs": [],
      "stateMutability": "nonpayable",
      "type": "function"
    },
    {
      "inputs": [
        {
          "internalType": "bytes4",
          "name": "interfaceId",
          "type": "bytes4"
        }
      ],
      "name": "supportsInterface",
      "outputs": [
        {
          "internalType": "bool",
          "name": "",
          "type": "bool"
        }
      ],
      "stateMutability": "view",
      "type": "function"
    },
    {
      "inputs": [],
      "name": "symbol",
      "outputs": [
        {
          "internalType": "string",
          "name": "",
          "type": "string"
        }
      ],
      "stateMutability": "view",
      "type": "function"
    },
    {
      "inputs": [
        {
          "internalType": "uint256",
          "name": "index",
          "type": "uint256"
        }
      ],
      "name": "tokenByIndex",
      "outputs": [
        {
          "internalType": "uint256",
          "name": "",
          "type": "uint256"
        }
      ],
      "stateMutability": "view",
      "type": "function"
    },
    {
      "inputs": [
        {
          "internalType": "address",
          "name": "owner",
          "type": "address"
        },
        {
          "internalType": "uint256",
          "name": "index",
          "type": "uint256"
        }
      ],
      "name": "tokenOfOwnerByIndex",
      "outputs": [
        {
          "internalType": "uint256",
          "name": "",
          "type": "uint256"
        }
      ],
      "stateMutability": "view",
      "type": "function"
    },
    {
      "inputs": [
        {
          "internalType": "uint256",
          "name": "tokenId",
          "type": "uint256"
        }
      ],
      "name": "tokenURI",
      "outputs": [
        {
          "internalType": "string",
          "name": "",
          "type": "string"
        }
      ],
      "stateMutability": "view",
      "type": "function"
    },
    {
      "inputs": [],
      "name": "totalDonations",
      "outputs": [
        {
          "internalType": "uint256",
          "name": "",
          "type": "uint256"
        }
      ],
      "stateMutability": "view",
      "type": "function"
    },
    {
      "inputs": [],
      "name": "totalSupply",
      "outputs": [
        {
          "internalType": "uint256",
          "name": "",
          "type": "uint256"
        }
      ],
      "stateMutability": "view",
      "type": "function"
    },
    {
      "inputs": [
        {
          "internalType": "address",
          "name": "from",
          "type": "address"
        },
        {
          "internalType": "address",
          "name": "to",
          "type": "address"
        },
        {
          "internalType": "uint256",
          "name": "tokenId",
          "type": "uint256"
        }
      ],
      "name": "transferFrom",
      "outputs": [],
      "stateMutability": "nonpayable",
      "type": "function"
    },
    {
      "inputs": [
        {
          "internalType": "address",
          "name": "newOwner",
          "type": "address"
        }
      ],
      "name": "transferOwnership",
      "outputs": [],
      "stateMutability": "nonpayable",
      "type": "function"
    },
    {
      "inputs": [
        {
          "internalType": "string",
          "name": "cause",
          "type": "string"
        }
      ],
      "name": "withdrawFunds",
      "outputs": [],
      "stateMutability": "nonpayable",
      "type": "function"
    }
  ],
  "bytecode": "0x60806040523480156200001157600080fd5b50336040518060400160405280600d81526020016c446f6e6174696f6e426164676560981b8152506040518060400160405280600681526020016544424144474560d01b8152508160009081620000699190620001b8565b506001620000788282620001b8565b5050506001600160a01b038116620000aa57604051631e4fbdf760e01b81526000600482015260240160405180910390fd5b620000b581620000c1565b506001600b5562000284565b600a80546001600160a01b038381166001600160a01b0319831681179093556040519116919082907f8be0079c531659141344cd1fd0a4f28419497f9722a3daafe3b4186f6b6457e090600090a35050565b634e487b7160e01b600052604160045260246000fd5b600181811c908216806200013e57607f821691505b6020821081036200015f57634e487b7160e01b600052602260045260246000fd5b50919050565b601f821115620001b357600081815260208120601f850160051c810160208610156200018e5750805b601f850160051c820191505b81811015620001af578281556001016200019a565b5050505b505050565b81516001600160401b03811115620001d457620001d462000113565b620001ec81620001e5845462000129565b8462000165565b602080601f8311600181146200022457600084156200020b5750858301515b600019600386901b1c1916600185901b178555620001af565b600085815260208120601f198616915b82811015620002555788860151825594840194600190910190840162000234565b5085821015620002745787850151600019600388901b60f8161c191681555b5050505050600190811b01905550565b6136c680620002946000396000f3fe60806040526004361061023b5760003560e01c806370a082311161012e578063a847e5ea116100ab578063c87b56dd1161006f578063c87b56dd14610769578063de2ed89314610789578063e985e9c51461079f578063f2fde38b146107bf578063f52a387f146107df57600080fd5b8063a847e5ea146106c4578063b1a23eae146106e4578063b5aebc801461071a578063b88d4fde1461072d578063c1a0db301461074d57600080fd5b80638da5cb5b116100f25780638da5cb5b1461061457806395d89b41146106325780639c1ea27114610647578063a22cb46514610674578063a48f18e21461069457600080fd5b806370a0823114610561578063715018a61461058157806377243d65146105965780637969f3b8146105b65780637ed3840a146105e757600080fd5b80632f745c59116101bc57806356b924971161018057806356b9249714610495578063614b36e2146104c557806361ec48ec146104f55780636352211e1461052557806369a2f0261461054557600080fd5b80632f745c59146103ec5780633e4cbf421461040c57806342842e0e146104395780634f6ccce714610459578063569739741461047957600080fd5b80630b8df9f1116102035780630b8df9f114610311578063130652261461033b57806318160ddd1461038357806319be9f881461039857806323b872dd146103cc57600080fd5b806301ffc9a71461024057806303b86b5a1461027557806306fdde0314610297578063081812fc146102b9578063095ea7b3146102f1575b600080fd5b34801561024c57600080fd5b5061026061025b366004612be4565b61080f565b60405190151581526020015b60405180910390f35b34801561028157600080fd5b50610295610290366004612c4a565b61083a565b005b3480156102a357600080fd5b506102ac610a1b565b60405161026c9190612cdc565b3480156102c557600080fd5b506102d96102d4366004612cef565b610aad565b6040516001600160a01b03909116815260200161026c565b3480156102fd57600080fd5b5061029561030c366004612d1d565b610ad6565b34801561031d57600080fd5b5061032d674563918244f4000081565b60405190815260200161026c565b34801561034757600080fd5b5061032d610356366004612df5565b81516020818401810180516011825292820194820194909420919093529091526000908152604090205481565b34801561038f57600080fd5b5060085461032d565b3480156103a457600080fd5b506103b86103b3366004612e47565b610ae1565b60405161026c989796959493929190612e7c565b3480156103d857600080fd5b506102956103e7366004612ee4565b610c4d565b3480156103f857600080fd5b5061032d610407366004612d1d565b610cd8565b34801561041857600080fd5b5061042c610427366004612f25565b610d3d565b60405161026c9190612f42565b34801561044557600080fd5b50610295610454366004612ee4565b610e79565b34801561046557600080fd5b5061032d610474366004612cef565b610e99565b34801561048557600080fd5b5061032d670de0b6b3a764000081565b3480156104a157600080fd5b506104b56104b0366004612fe5565b610ef2565b60405161026c949392919061302a565b3480156104d157600080fd5b506102606104e0366004612f25565b60156020526000908152604090205460ff1681565b34801561050157600080fd5b50610260610510366004612f25565b60126020526000908152604090205460ff1681565b34801561053157600080fd5b506102d9610540366004612cef565b610fdc565b34801561055157600080fd5b5061032d67016345785d8a000081565b34801561056d57600080fd5b5061032d61057c366004612f25565b610fe7565b34801561058d57600080fd5b5061029561102f565b3480156105a257600080fd5b506102956105b1366004613059565b611043565b3480156105c257600080fd5b506105d66105d1366004612d1d565b61132e565b60405161026c9594939291906130e5565b3480156105f357600080fd5b5061032d610602366004612f25565b60166020526000908152604090205481565b34801561062057600080fd5b50600a546001600160a01b03166102d9565b34801561063e57600080fd5b506102ac611410565b34801561065357600080fd5b50610667610662366004612c4a565b61141f565b60405161026c9190613124565b34801561068057600080fd5b5061029561068f3660046131a3565b61155a565b3480156106a057600080fd5b506102606106af366004612f25565b60136020526000908152604090205460ff1681565b3480156106d057600080fd5b506102956106df3660046131d6565b611565565b3480156106f057600080fd5b5061032d6106ff366004612f25565b6001600160a01b031660009081526016602052604090205490565b610295610728366004612c4a565b6116d4565b34801561073957600080fd5b5061029561074836600461324a565b611b30565b34801561075957600080fd5b5061032d6706f05b59d3b2000081565b34801561077557600080fd5b506102ac610784366004612cef565b611b48565b34801561079557600080fd5b5061032d600d5481565b3480156107ab57600080fd5b506102606107ba3660046132ca565b611bbd565b3480156107cb57600080fd5b506102956107da366004612f25565b611beb565b3480156107eb57600080fd5b506102606107fa366004612f25565b60146020526000908152604090205460ff1681565b60006001600160e01b0319821663780e9d6360e01b1480610834575061083482611c29565b92915050565b610842611c79565b6000600e83836040516108569291906132f8565b9081526040519081900360200190206002810154909150336001600160a01b03909116146108bd5760405162461bcd60e51b815260206004820152600f60248201526e4e6f742062656e656669636961727960881b60448201526064015b60405180910390fd5b60008160040154116109085760405162461bcd60e51b81526020600482015260146024820152734e6f2066756e647320746f20776974686472617760601b60448201526064016108b4565b60048101805460009182905560028301546040519192916001600160a01b039091169083908381818185875af1925050503d8060008114610965576040519150601f19603f3d011682016040523d82523d6000602084013e61096a565b606091505b50509050806109ad5760405162461bcd60e51b815260206004820152600f60248201526e151c985b9cd9995c8819985a5b1959608a1b60448201526064016108b4565b84846040516109bd9291906132f8565b6040805191829003822060028601546001600160a01b0316835260208301859052917f04f1cd9c278166a000e1b082998f5bdbdf1b11c193aafbd7d1a90a0c9093a2ec910160405180910390a2505050610a176001600b55565b5050565b606060008054610a2a90613308565b80601f0160208091040260200160405190810160405280929190818152602001828054610a5690613308565b8015610aa35780601f10610a7857610100808354040283529160200191610aa3565b820191906000526020600020905b815481529060010190602001808311610a8657829003601f168201915b5050505050905090565b6000610ab882611ca3565b506000828152600460205260409020546001600160a01b0316610834565b610a17828233611cdc565b8051602081830181018051600e82529282019190930120915280548190610b0790613308565b80601f0160208091040260200160405190810160405280929190818152602001828054610b3390613308565b8015610b805780601f10610b5557610100808354040283529160200191610b80565b820191906000526020600020905b815481529060010190602001808311610b6357829003601f168201915b505050505090806001018054610b9590613308565b80601f0160208091040260200160405190810160405280929190818152602001828054610bc190613308565b8015610c0e5780601f10610be357610100808354040283529160200191610c0e565b820191906000526020600020905b815481529060010190602001808311610bf157829003601f168201915b505050600284015460038501546004860154600587015460069097015495966001600160a01b0390931695919450925060ff8082169161010090041688565b6001600160a01b038216610c7757604051633250574960e11b8152600060048201526024016108b4565b6000610c84838333611ce9565b9050836001600160a01b0316816001600160a01b031614610cd2576040516364283d7b60e01b81526001600160a01b03808616600483015260248201849052821660448201526064016108b4565b50505050565b6000610ce383610fe7565b8210610d145760405163295f44f760e21b81526001600160a01b0384166004820152602481018390526044016108b4565b506001600160a01b03919091166000908152600660209081526040808320938352929052205490565b6001600160a01b0381166000908152601060209081526040808320805482518185028101850190935280835260609492939192909184015b82821015610e6e5760008481526020908190206040805160a081018252600586029092018054835260018101546001600160a01b031693830193909352600283015490820152600382018054919291606084019190610dd390613308565b80601f0160208091040260200160405190810160405280929190818152602001828054610dff90613308565b8015610e4c5780601f10610e2157610100808354040283529160200191610e4c565b820191906000526020600020905b815481529060010190602001808311610e2f57829003601f168201915b5050505050815260200160048201548152505081526020019060010190610d75565b505050509050919050565b610e9483838360405180602001604052806000815250611b30565b505050565b6000610ea460085490565b8210610ecd5760405163295f44f760e21b815260006004820152602481018390526044016108b4565b60088281548110610ee057610ee0613342565b90600052602060002001549050919050565b8151602081840181018051600f825292820191850191909120919052805482908110610f1d57600080fd5b906000526020600020906004020160009150915050806000018054610f4190613308565b80601f0160208091040260200160405190810160405280929190818152602001828054610f6d90613308565b8015610fba5780601f10610f8f57610100808354040283529160200191610fba565b820191906000526020600020905b815481529060010190602001808311610f9d57829003601f168201915b50505050600183015460028401546003909401549293909260ff909116915084565b600061083482611ca3565b60006001600160a01b038216611013576040516322718ad960e21b8152600060048201526024016108b4565b506001600160a01b031660009081526003602052604090205490565b611037611dbe565b6110416000611deb565b565b61104b611dbe565b60006001600160a01b0316600e87876040516110689291906132f8565b908152604051908190036020019020600201546001600160a01b0316146110c85760405162461bcd60e51b8152602060048201526014602482015273436175736520616c72656164792065786973747360601b60448201526064016108b4565b600081116111185760405162461bcd60e51b815260206004820152601e60248201527f54617267657420616d6f756e74206d75737420626520706f736974697665000060448201526064016108b4565b6001600160a01b0382166111645760405162461bcd60e51b8152602060048201526013602482015272496e76616c69642062656e656669636961727960681b60448201526064016108b4565b60405180610100016040528087878080601f016020809104026020016040519081016040528093929190818152602001838380828437600092019190915250505090825250604080516020601f88018190048102820181019092528681529181019190879087908190840183828082843760009201829052509385525050506001600160a01b038516602083015260408083018590526060830182905260808301829052600160a084015260c09092015251600e9061122690899089906132f8565b90815260405190819003602001902081518190611243908261339e565b5060208201516001820190611258908261339e565b506040828101516002830180546001600160a01b0319166001600160a01b03909216919091179055606083015160038301556080830151600483015560a0830151600583015560c08301516006909201805460e09094015161ffff1990941692151561ff0019169290921761010093151593909302929092179055516112e190879087906132f8565b60405180910390207f4b016bfc887ad4eb1cada19f10fb664a5e098841bc824221cb83fa0117022b698585858560405161131e9493929190613487565b60405180910390a2505050505050565b6010602052816000526040600020818154811061134a57600080fd5b600091825260209091206005909102018054600182015460028301546003840180549396506001600160a01b039092169450929161138790613308565b80601f01602080910402602001604051908101604052809291908181526020018280546113b390613308565b80156114005780601f106113d557610100808354040283529160200191611400565b820191906000526020600020905b8154815290600101906020018083116113e357829003601f168201915b5050505050908060040154905085565b606060018054610a2a90613308565b6060600f83836040516114339291906132f8565b9081526020016040518091039020805480602002602001604051908101604052809291908181526020016000905b8282101561154e578382906000526020600020906004020160405180608001604052908160008201805461149490613308565b80601f01602080910402602001604051908101604052809291908181526020018280546114c090613308565b801561150d5780601f106114e25761010080835404028352916020019161150d565b820191906000526020600020905b8154815290600101906020018083116114f057829003601f168201915b5050509183525050600182810154602080840191909152600284015460ff161515604084015260039093015460609092019190915291835292019101611461565b50505050905092915050565b610a17338383611e3d565b61156d611dbe565b600e858560405161157f9291906132f8565b9081526040519081900360200190206006015460ff166115b15760405162461bcd60e51b81526004016108b4906134b7565b600f85856040516115c39291906132f8565b9081526020016040518091039020604051806080016040528085858080601f01602080910402602001604051908101604052809392919081815260200183838082843760009201829052509385525050506020808301869052604083018290526060909201819052835460018101855593815220815191926004020190819061164c908261339e565b506020820151600182015560408083015160028301805460ff19169115159190911790556060909201516003909101555161168a90869086906132f8565b60405180910390207f6267619a065f1802a7ede667e1406c552c481e3f9f50e6222455e91f1f9533c18484846040516116c5939291906134fa565b60405180910390a25050505050565b6116dc611c79565b6000341161172c5760405162461bcd60e51b815260206004820152601960248201527f446f6e6174696f6e206d75737420626520706f7369746976650000000000000060448201526064016108b4565b600e828260405161173e9291906132f8565b9081526040519081900360200190206006015460ff166117705760405162461bcd60e51b81526004016108b4906134b7565b600e82826040516117829291906132f8565b9081526040519081900360200190206006015460ff61010090910416156117eb5760405162461bcd60e51b815260206004820152601c60248201527f43617573652074617267657420616c726561647920726561636865640000000060448201526064016108b4565b6000600e83836040516117ff9291906132f8565b90815260200160405180910390209050601183836040516118219291906132f8565b90815260408051602092819003830190203360009081529252812054900361185b5760058101805490600061185583613534565b91905055505b3481600401600082825461186f919061354d565b9250508190555034601184846040516118899291906132f8565b90815260408051602092819003830190203360009081529252812080549091906118b490849061354d565b9250508190555034600d60008282546118cd919061354d565b9091555060009050670de0b6b3a76400006118e9346064613560565b6118f39190613577565b3360009081526016602052604081208054929350839290919061191790849061354d565b909155505033600081815260106020908152604091829020825160a0810184523481528083019490945242848401528251601f8801839004830281018301909352868352929160608301918890889081908401838280828437600092018290525093855250505060209182018590528354600180820186559482529082902083516005909202019081559082015192810180546001600160a01b0319166001600160a01b039094169390931790925560408101516002830155606081015190919060038201906119e7908261339e565b506080820151816004015550506119fe8484611edc565b8160030154826004015410611a775760068201805461ff001916610100179055604051611a2e90859085906132f8565b60408051918290038220600485015460058601549084526020840152917f3cf57333be1dc2498abfcfe51a381de01300d8e90f4a9fbeba575d631ff8cb73910160405180910390a25b611a803361205f565b8383604051611a909291906132f8565b604080519182900382203483526020830184905242838301529051909133917fd47341500bfd05854c4573b0298cdf0cc324952885c20c0ea43644414c4202bb9181900360600190a333600081815260166020526040908190205490517fb475cc969ea58862a1efe8007da38226b4f66e1eaf2c49e76f4e26fa9f4f9c6b91611b1c9188908890613599565b60405180910390a25050610a176001600b55565b611b3b848484610c4d565b610cd233858585856123f2565b6060611b5382611ca3565b506000611b6b60408051602081019091526000815290565b90506000815111611b8b5760405180602001604052806000815250611bb6565b80611b958461251c565b604051602001611ba69291906135bc565b6040516020818303038152906040525b9392505050565b6001600160a01b03918216600090815260056020908152604080832093909416825291909152205460ff1690565b611bf3611dbe565b6001600160a01b038116611c1d57604051631e4fbdf760e01b8152600060048201526024016108b4565b611c2681611deb565b50565b60006001600160e01b031982166380ac58cd60e01b1480611c5a57506001600160e01b03198216635b5e139f60e01b145b8061083457506301ffc9a760e01b6001600160e01b0319831614610834565b6002600b5403611c9c57604051633ee5aeb560e01b815260040160405180910390fd5b6002600b55565b6000818152600260205260408120546001600160a01b03168061083457604051637e27328960e01b8152600481018490526024016108b4565b610e9483838360016125af565b600080611cf78585856126b5565b90506001600160a01b038116611d5457611d4f84600880546000838152600960205260408120829055600182018355919091527ff3f7a9fe364faab93b216da50a3214154f22a0a2b415b23a84c8169e8b636ee30155565b611d77565b846001600160a01b0316816001600160a01b031614611d7757611d7781856127ae565b6001600160a01b038516611d9357611d8e8461282f565b611db6565b846001600160a01b0316816001600160a01b031614611db657611db685856128de565b949350505050565b600a546001600160a01b031633146110415760405163118cdaa760e01b81523360048201526024016108b4565b600a80546001600160a01b038381166001600160a01b0319831681179093556040519116919082907f8be0079c531659141344cd1fd0a4f28419497f9722a3daafe3b4186f6b6457e090600090a35050565b6001600160a01b038216611e6f57604051630b61174360e31b81526001600160a01b03831660048201526024016108b4565b6001600160a01b03838116600081815260056020908152604080832094871680845294825291829020805460ff191686151590811790915591519182527f17307eab39ab6107e8899845ad3d59bd9653f200f220920489ca2b5937696c31910160405180910390a3505050565b6000600f8383604051611ef09291906132f8565b908152602001604051809103902090506000600e8484604051611f149291906132f8565b908152602001604051809103902060040154905060005b825481101561205857828181548110611f4657611f46613342565b600091825260209091206002600490920201015460ff16158015611f8d5750828181548110611f7757611f77613342565b9060005260206000209060040201600101548210155b15612046576001838281548110611fa657611fa6613342565b906000526020600020906004020160020160006101000a81548160ff02191690831515021790555042838281548110611fe157611fe1613342565b90600052602060002090600402016003018190555084846040516120069291906132f8565b60408051918290038220838352426020840152917f78ff01ee5045142fe9fe9ca233feef51bdc29917c87862f903f65b8fc83fed7f910160405180910390a25b8061205081613534565b915050611f2b565b5050505050565b6001600160a01b038116600090815260106020908152604080832080548251818502810185019093528083528493849084015b8282101561218b5760008481526020908190206040805160a081018252600586029092018054835260018101546001600160a01b0316938301939093526002830154908201526003820180549192916060840191906120f090613308565b80601f016020809104026020016040519081016040528092919081815260200182805461211c90613308565b80156121695780601f1061213e57610100808354040283529160200191612169565b820191906000526020600020905b81548152906001019060200180831161214c57829003601f168201915b5050505050815260200160048201548152505081526020019060010190612092565b50505050905060005b81518110156121da578181815181106121af576121af613342565b602002602001015160000151836121c6919061354d565b9250806121d281613534565b915050612194565b50674563918244f40000821015801561220c57506001600160a01b03831660009081526015602052604090205460ff16155b156122625761223a83604051806040016040528060078152602001661112505353d39160ca1b81525061292e565b6001600160a01b0383166000908152601560205260409020805460ff19166001179055505050565b670de0b6b3a7640000821015801561229357506001600160a01b03831660009081526014602052604090205460ff16155b156122e6576122be836040518060400160405280600481526020016311d3d31160e21b81525061292e565b6001600160a01b0383166000908152601460205260409020805460ff19166001179055505050565b6706f05b59d3b20000821015801561231757506001600160a01b03831660009081526013602052604090205460ff16155b1561236c57612344836040518060400160405280600681526020016529a4a62b22a960d11b81525061292e565b6001600160a01b0383166000908152601360205260409020805460ff19166001179055505050565b67016345785d8a0000821015801561239d57506001600160a01b03831660009081526012602052604090205460ff16155b15610e94576123ca836040518060400160405280600681526020016542524f4e5a4560d01b81525061292e565b6001600160a01b0383166000908152601260205260409020805460ff19166001179055505050565b6001600160a01b0383163b1561205857604051630a85bd0160e11b81526001600160a01b0384169063150b7a02906124349088908890879087906004016135eb565b6020604051808303816000875af192505050801561246f575060408051601f3d908101601f1916820190925261246c91810190613628565b60015b6124d8573d80801561249d576040519150601f19603f3d011682016040523d82523d6000602084013e6124a2565b606091505b5080516000036124d057604051633250574960e11b81526001600160a01b03851660048201526024016108b4565b805181602001fd5b6001600160e01b03198116630a85bd0160e11b1461251457604051633250574960e11b81526001600160a01b03851660048201526024016108b4565b505050505050565b6060600061252983612998565b600101905060008167ffffffffffffffff81111561254957612549612d49565b6040519080825280601f01601f191660200182016040528015612573576020820181803683370190505b5090508181016020015b600019016f181899199a1a9b1b9c1cb0b131b232b360811b600a86061a8153600a850494508461257d57509392505050565b80806125c357506001600160a01b03821615155b156126855760006125d384611ca3565b90506001600160a01b038316158015906125ff5750826001600160a01b0316816001600160a01b031614155b801561261257506126108184611bbd565b155b1561263b5760405163a9fbf51f60e01b81526001600160a01b03841660048201526024016108b4565b81156126835783856001600160a01b0316826001600160a01b03167f8c5be1e5ebec7d5bd14f71427d1e84f3dd0314c0f7b2291e5b200ac8c7c3b92560405160405180910390a45b505b5050600090815260046020526040902080546001600160a01b0319166001600160a01b0392909216919091179055565b6000828152600260205260408120546001600160a01b03908116908316156126e2576126e2818486612a70565b6001600160a01b03811615612720576126ff6000856000806125af565b6001600160a01b038116600090815260036020526040902080546000190190555b6001600160a01b0385161561274f576001600160a01b0385166000908152600360205260409020805460010190555b60008481526002602052604080822080546001600160a01b0319166001600160a01b0389811691821790925591518793918516917fddf252ad1be2c89b69c2b068fc378daa952ba7f163c4a11628f55a4df523b3ef91a4949350505050565b60006127b983610fe7565b6000838152600760209081526040808320546001600160a01b038816845260069092529091209192509081831461281057600083815260208281526040808320548584528184208190558352600790915290208290555b6000938452600760209081526040808620869055938552525081205550565b60085460009061284190600190613645565b6000838152600960205260408120546008805493945090928490811061286957612869613342565b90600052602060002001549050806008838154811061288a5761288a613342565b60009182526020808320909101929092558281526009909152604080822084905585825281205560088054806128c2576128c2613658565b6001900381819060005260206000200160009055905550505050565b600060016128eb84610fe7565b6128f59190613645565b6001600160a01b039093166000908152600660209081526040808320868452825280832085905593825260079052919091209190915550565b600c5461293b8382612ad4565b600c805490600061294b83613534565b9190505550826001600160a01b03167fd06cdb8a5a561c4954f371279402e0b6e4fdff028968b69de562b3823dcea716838360405161298b92919061366e565b60405180910390a2505050565b60008072184f03e93ff9f4daa797ed6e38ed64bf6a1f0160401b83106129d75772184f03e93ff9f4daa797ed6e38ed64bf6a1f0160401b830492506040015b6d04ee2d6d415b85acef81000000008310612a03576d04ee2d6d415b85acef8100000000830492506020015b662386f26fc100008310612a2157662386f26fc10000830492506010015b6305f5e1008310612a39576305f5e100830492506008015b6127108310612a4d57612710830492506004015b60648310612a5f576064830492506002015b600a83106108345760010192915050565b612a7b838383612aee565b610e94576001600160a01b038316612aa957604051637e27328960e01b8152600481018290526024016108b4565b60405163177e802f60e01b81526001600160a01b0383166004820152602481018290526044016108b4565b610a17828260405180602001604052806000815250612b51565b60006001600160a01b03831615801590611db65750826001600160a01b0316846001600160a01b03161480612b285750612b288484611bbd565b80611db65750506000908152600460205260409020546001600160a01b03908116911614919050565b612b5b8383612b69565b610e943360008585856123f2565b6001600160a01b038216612b9357604051633250574960e11b8152600060048201526024016108b4565b6000612ba183836000611ce9565b90506001600160a01b03811615610e94576040516339e3563760e11b8152600060048201526024016108b4565b6001600160e01b031981168114611c2657600080fd5b600060208284031215612bf657600080fd5b8135611bb681612bce565b60008083601f840112612c1357600080fd5b50813567ffffffffffffffff811115612c2b57600080fd5b602083019150836020828501011115612c4357600080fd5b9250929050565b60008060208385031215612c5d57600080fd5b823567ffffffffffffffff811115612c7457600080fd5b612c8085828601612c01565b90969095509350505050565b60005b83811015612ca7578181015183820152602001612c8f565b50506000910152565b60008151808452612cc8816020860160208601612c8c565b601f01601f19169290920160200192915050565b602081526000611bb66020830184612cb0565b600060208284031215612d0157600080fd5b5035919050565b6001600160a01b0381168114611c2657600080fd5b60008060408385031215612d3057600080fd5b8235612d3b81612d08565b946020939093013593505050565b634e487b7160e01b600052604160045260246000fd5b600067ffffffffffffffff80841115612d7a57612d7a612d49565b604051601f8501601f19908116603f01168101908282118183101715612da257612da2612d49565b81604052809350858152868686011115612dbb57600080fd5b858560208301376000602087830101525050509392505050565b600082601f830112612de657600080fd5b611bb683833560208501612d5f565b60008060408385031215612e0857600080fd5b823567ffffffffffffffff811115612e1f57600080fd5b612e2b85828601612dd5565b9250506020830135612e3c81612d08565b809150509250929050565b600060208284031215612e5957600080fd5b813567ffffffffffffffff811115612e7057600080fd5b611db684828501612dd5565b6000610100808352612e908184018c612cb0565b90508281036020840152612ea4818b612cb0565b6001600160a01b0399909916604084015250506060810195909552608085019390935260a0840191909152151560c0830152151560e09091015292915050565b600080600060608486031215612ef957600080fd5b8335612f0481612d08565b92506020840135612f1481612d08565b929592945050506040919091013590565b600060208284031215612f3757600080fd5b8135611bb681612d08565b60006020808301818452808551808352604092508286019150828160051b87010184880160005b83811015612fd757888303603f19018552815180518452878101516001600160a01b031688850152868101518785015260608082015160a08287018190529190612fb583880182612cb0565b6080948501519790940196909652505094870194925090860190600101612f69565b509098975050505050505050565b60008060408385031215612ff857600080fd5b823567ffffffffffffffff81111561300f57600080fd5b61301b85828601612dd5565b95602094909401359450505050565b60808152600061303d6080830187612cb0565b6020830195909552509115156040830152606090910152919050565b6000806000806000806080878903121561307257600080fd5b863567ffffffffffffffff8082111561308a57600080fd5b6130968a838b01612c01565b909850965060208901359150808211156130af57600080fd5b506130bc89828a01612c01565b90955093505060408701356130d081612d08565b80925050606087013590509295509295509295565b85815260018060a01b038516602082015283604082015260a06060820152600061311260a0830185612cb0565b90508260808301529695505050505050565b60006020808301818452808551808352604092508286019150828160051b87010184880160005b83811015612fd757603f1989840301855281516080815181865261317182870182612cb0565b838b0151878c01528984015115158a88015260609384015193909601929092525050938601939086019060010161314b565b600080604083850312156131b657600080fd5b82356131c181612d08565b915060208301358015158114612e3c57600080fd5b6000806000806000606086880312156131ee57600080fd5b853567ffffffffffffffff8082111561320657600080fd5b61321289838a01612c01565b9097509550602088013591508082111561322b57600080fd5b5061323888828901612c01565b96999598509660400135949350505050565b6000806000806080858703121561326057600080fd5b843561326b81612d08565b9350602085013561327b81612d08565b925060408501359150606085013567ffffffffffffffff81111561329e57600080fd5b8501601f810187136132af57600080fd5b6132be87823560208401612d5f565b91505092959194509250565b600080604083850312156132dd57600080fd5b82356132e881612d08565b91506020830135612e3c81612d08565b8183823760009101908152919050565b600181811c9082168061331c57607f821691505b60208210810361333c57634e487b7160e01b600052602260045260246000fd5b50919050565b634e487b7160e01b600052603260045260246000fd5b601f821115610e9457600081815260208120601f850160051c8101602086101561337f5750805b601f850160051c820191505b818110156125145782815560010161338b565b815167ffffffffffffffff8111156133b8576133b8612d49565b6133cc816133c68454613308565b84613358565b602080601f83116001811461340157600084156133e95750858301515b600019600386901b1c1916600185901b178555612514565b600085815260208120601f198616915b8281101561343057888601518255948401946001909101908401613411565b508582101561344e5787850151600019600388901b60f8161c191681555b5050505050600190811b01905550565b81835281816020850137506000828201602090810191909152601f909101601f19169091010190565b60608152600061349b60608301868861345e565b6001600160a01b03949094166020830152506040015292915050565b60208082526023908201527f436175736520646f6573206e6f74206578697374206f7220697320696e61637460408201526269766560e81b606082015260800190565b60408152600061350e60408301858761345e565b9050826020830152949350505050565b634e487b7160e01b600052601160045260246000fd5b6000600182016135465761354661351e565b5060010190565b808201808211156108345761083461351e565b80820281158282048414176108345761083461351e565b60008261359457634e487b7160e01b600052601260045260246000fd5b500490565b8381526040602082015260006135b360408301848661345e565b95945050505050565b600083516135ce818460208801612c8c565b8351908301906135e2818360208801612c8c565b01949350505050565b6001600160a01b038581168252841660208201526040810183905260806060820181905260009061361e90830184612cb0565b9695505050505050565b60006020828403121561363a57600080fd5b8151611bb681612bce565b818103818111156108345761083461351e565b634e487b7160e01b600052603160045260246000fd5b6040815260006136816040830185612cb0565b9050826020830152939250505056fea26469706673582212209ac54cfca9cc3710976ca3a31f039b863c891b7e54bc86c18a17ba8657a5ca2e64736f6c63430008140033",
  "linkReferences": {},
  "deployedLinkReferences": {}
}