{
  "_format": "hh-sol-artifact-1",
  "contractName": "TransparentDonationTracker",
  "sourceName": "contracts/Donation.sol",
  "abi": [
    {
      "inputs": [],
      "stateMutability": "nonpayable",
      "type": "constructor"
    },
    {
      "inputs": [],
      "name": "ERC721EnumerableForbiddenBatchMint",
      "type": "error"
    },
    {
      "inputs": [
        {
          "internalType": "address",
          "name": "sender",
          "type": "address"
        },
        {
          "internalType": "uint256",
          "name": "tokenId",
          "type": "uint256"
        },
        {
          "internalType": "address",
          "name": "owner",
          "type": "address"
        }
      ],
      "name": "ERC721IncorrectOwner",
      "type": "error"
    },
    {
      "inputs": [
        {
          "internalType": "address",
          "name": "operator",
          "type": "address"
        },
        {
          "internalType": "uint256",
          "name": "tokenId",
          "type": "uint256"
        }
      ],
      "name": "ERC721InsufficientApproval",
      "type": "error"
    },
    {
      "inputs": [
        {
          "internalType": "address",
          "name": "approver",
          "type": "address"
        }
      ],
      "name": "ERC721InvalidApprover",
      "type": "error"
    },
    {
      "inputs": [
        {
          "internalType": "address",
          "name": "operator",
          "type": "address"
        }
      ],
      "name": "ERC721InvalidOperator",
      "type": "error"
    },
    {
      "inputs": [
        {
          "internalType": "address",
          "name": "owner",
          "type": "address"
        }
      ],
      "name": "ERC721InvalidOwner",
      "type": "error"
    },
    {
      "inputs": [
        {
          "internalType": "address",
          "name": "receiver",
          "type": "address"
        }
      ],
      "name": "ERC721InvalidReceiver",
      "type": "error"
    },
    {
      "inputs": [
        {
          "internalType": "address",
          "name": "sender",
          "type": "address"
        }
      ],
      "name": "ERC721InvalidSender",
      "type": "error"
    },
    {
      "inputs": [
        {
          "internalType": "uint256",
          "name": "tokenId",
          "type": "uint256"
        }
      ],
      "name": "ERC721NonexistentToken",
      "type": "error"
    },
    {
      "inputs": [
        {
          "internalType": "address",
          "name": "owner",
          "type": "address"
        },
        {
          "internalType": "uint256",
          "name": "index",
          "type": "uint256"
        }
      ],
      "name": "ERC721OutOfBoundsIndex",
      "type": "error"
    },
    {
      "inputs": [
        {
          "internalType": "address",
          "name": "owner",
          "type": "address"
        }
      ],
      "name": "OwnableInvalidOwner",
      "type": "error"
    },
    {
      "inputs": [
        {
          "internalType": "address",
          "name": "account",
          "type": "address"
        }
      ],
      "name": "OwnableUnauthorizedAccount",
      "type": "error"
    },
    {
      "inputs": [],
      "name": "ReentrancyGuardReentrantCall",
      "type": "error"
    },
    {
      "anonymous": false,
      "inputs": [
        {
          "indexed": true,
          "internalType": "address",
          "name": "owner",
          "type": "address"
        },
        {
          "indexed": true,
          "internalType": "address",
          "name": "approved",
          "type": "address"
        },
        {
          "indexed": true,
          "internalType": "uint256",
          "name": "tokenId",
          "type": "uint256"
        }
      ],
      "name": "Approval",
      "type": "event"
    },
    {
      "anonymous": false,
      "inputs": [
        {
          "indexed": true,
          "internalType": "address",
          "name": "owner",
          "type": "address"
        },
        {
          "indexed": true,
          "internalType": "address",
          "name": "operator",
          "type": "address"
        },
        {
          "indexed": false,
          "internalType": "bool",
          "name": "approved",
          "type": "bool"
        }
      ],
      "name": "ApprovalForAll",
      "type": "event"
    },
    {
      "anonymous": false,
      "inputs": [
        {
          "indexed": true,
          "internalType": "address",
          "name": "donor",
          "type": "address"
        },
        {
          "indexed": false,
          "internalType": "string",
          "name": "badgeType",
          "type": "string"
        },
        {
          "indexed": false,
          "internalType": "uint256",
          "name": "tokenId",
          "type": "uint256"
        }
      ],
      "name": "BadgeEarned",
      "type": "event"
    },
    {
      "anonymous": false,
      "inputs": [
        {
          "indexed": false,
          "internalType": "string",
          "name": "causeName",
          "type": "string"
        },
        {
          "indexed": false,
          "internalType": "string",
          "name": "description",
          "type": "string"
        },
        {
          "indexed": false,
          "internalType": "address",
          "name": "beneficiary",
          "type": "address"
        },
        {
          "indexed": false,
          "internalType": "uint256",
          "name": "targetAmount",
          "type": "uint256"
        }
      ],
      "name": "CauseCreated",
      "type": "event"
    },
    {
      "anonymous": false,
      "inputs": [
        {
          "indexed": false,
          "internalType": "string",
          "name": "cause",
          "type": "string"
        },
        {
          "indexed": false,
          "internalType": "uint256",
          "name": "finalAmount",
          "type": "uint256"
        },
        {
          "indexed": false,
          "internalType": "uint256",
          "name": "donorCount",
          "type": "uint256"
        }
      ],
      "name": "CauseTargetReached",
      "type": "event"
    },
    {
      "anonymous": false,
      "inputs": [
        {
          "indexed": true,
          "internalType": "address",
          "name": "donor",
          "type": "address"
        },
        {
          "indexed": false,
          "internalType": "string",
          "name": "cause",
          "type": "string"
        },
        {
          "indexed": false,
          "internalType": "uint256",
          "name": "amount",
          "type": "uint256"
        },
        {
          "indexed": false,
          "internalType": "uint256",
          "name": "impactScore",
          "type": "uint256"
        },
        {
          "indexed": false,
          "internalType": "uint256",
          "name": "timestamp",
          "type": "uint256"
        }
      ],
      "name": "DonationReceived",
      "type": "event"
    },
    {
      "anonymous": false,
      "inputs": [
        {
          "indexed": false,
          "internalType": "string",
          "name": "cause",
          "type": "string"
        },
        {
          "indexed": false,
          "internalType": "address",
          "name": "beneficiary",
          "type": "address"
        },
        {
          "indexed": false,
          "internalType": "uint256",
          "name": "amount",
          "type": "uint256"
        }
      ],
      "name": "FundsWithdrawn",
      "type": "event"
    },
    {
      "anonymous": false,
      "inputs": [
        {
          "indexed": true,
          "internalType": "address",
          "name": "donor",
          "type": "address"
        },
        {
          "indexed": false,
          "internalType": "uint256",
          "name": "newScore",
          "type": "uint256"
        },
        {
          "indexed": false,
          "internalType": "string",
          "name": "cause",
          "type": "string"
        }
      ],
      "name": "ImpactScoreUpdated",
      "type": "event"
    },
    {
      "anonymous": false,
      "inputs": [
        {
          "indexed": false,
          "internalType": "string",
          "name": "cause",
          "type": "string"
        },
        {
          "indexed": false,
          "internalType": "string",
          "name": "description",
          "type": "string"
        },
        {
          "indexed": false,
          "internalType": "uint256",
          "name": "targetAmount",
          "type": "uint256"
        }
      ],
      "name": "MilestoneAdded",
      "type": "event"
    },
    {
      "anonymous": false,
      "inputs": [
        {
          "indexed": false,
          "internalType": "string",
          "name": "cause",
          "type": "string"
        },
        {
          "indexed": false,
          "internalType": "uint256",
          "name": "milestoneIndex",
          "type": "uint256"
        },
        {
          "indexed": false,
          "internalType": "uint256",
          "name": "completionTime",
          "type": "uint256"
        }
      ],
      "name": "MilestoneCompleted",
      "type": "event"
    },
    {
      "anonymous": false,
      "inputs": [
        {
          "indexed": true,
          "internalType": "address",
          "name": "previousOwner",
          "type": "address"
        },
        {
          "indexed": true,
          "internalType": "address",
          "name": "newOwner",
          "type": "address"
        }
      ],
      "name": "OwnershipTransferred",
      "type": "event"
    },
    {
      "anonymous": false,
      "inputs": [
        {
          "indexed": true,
          "internalType": "address",
          "name": "from",
          "type": "address"
        },
        {
          "indexed": true,
          "internalType": "address",
          "name": "to",
          "type": "address"
        },
        {
          "indexed": true,
          "internalType": "uint256",
          "name": "tokenId",
          "type": "uint256"
        }
      ],
      "name": "Transfer",
      "type": "event"
    },
    {
      "inputs": [],
      "name": "BRONZE_THRESHOLD",
      "outputs": [
        {
          "internalType": "uint256",
          "name": "",
          "type": "uint256"
        }
      ],
      "stateMutability": "view",
      "type": "function"
    },
    {
      "inputs": [],
      "name": "DIAMOND_THRESHOLD",
      "outputs": [
        {
          "internalType": "uint256",
          "name": "",
          "type": "uint256"
        }
      ],
      "stateMutability": "view",
      "type": "function"
    },
    {
      "inputs": [],
      "name": "GOLD_THRESHOLD",
      "outputs": [
        {
          "internalType": "uint256",
          "name": "",
          "type": "uint256"
        }
      ],
      "stateMutability": "view",
      "type": "function"
    },
    {
      "inputs": [],
      "name": "SILVER_THRESHOLD",
      "outputs": [
        {
          "internalType": "uint256",
          "name": "",
          "type": "uint256"
        }
      ],
      "stateMutability": "view",
      "type": "function"
    },
    {
      "inputs": [
        {
          "internalType": "string",
          "name": "cause",
          "type": "string"
        },
        {
          "internalType": "string",
          "name": "description",
          "type": "string"
        },
        {
          "internalType": "uint256",
          "name": "targetAmount",
          "type": "uint256"
        }
      ],
      "name": "addMilestone",
      "outputs": [],
      "stateMutability": "nonpayable",
      "type": "function"
    },
    {
      "inputs": [
        {
          "internalType": "address",
          "name": "to",
          "type": "address"
        },
        {
          "internalType": "uint256",
          "name": "tokenId",
          "type": "uint256"
        }
      ],
      "name": "approve",
      "outputs": [],
      "stateMutability": "nonpayable",
      "type": "function"
    },
    {
      "inputs": [
        {
          "internalType": "address",
          "name": "owner",
          "type": "address"
        }
      ],
      "name": "balanceOf",
      "outputs": [
        {
          "internalType": "uint256",
          "name": "",
          "type": "uint256"
        }
      ],
      "stateMutability": "view",
      "type": "function"
    },
    {
      "inputs": [
        {
          "internalType": "string",
          "name": "",
          "type": "string"
        },
        {
          "internalType": "address",
          "name": "",
          "type": "address"
        }
      ],
      "name": "causeDonorAmount",
      "outputs": [
        {
          "internalType": "uint256",
          "name": "",
          "type": "uint256"
        }
      ],
      "stateMutability": "view",
      "type": "function"
    },
    {
      "inputs": [
        {
          "internalType": "string",
          "name": "",
          "type": "string"
        },
        {
          "internalType": "uint256",
          "name": "",
          "type": "uint256"
        }
      ],
      "name": "causeMilestones",
      "outputs": [
        {
          "internalType": "string",
          "name": "description",
          "type": "string"
        },
        {
          "internalType": "uint256",
          "name": "targetAmount",
          "type": "uint256"
        },
        {
          "internalType": "bool",
          "name": "isCompleted",
          "type": "bool"
        },
        {
          "internalType": "uint256",
          "name": "completionTime",
          "type": "uint256"
        }
      ],
      "stateMutability": "view",
      "type": "function"
    },
    {
      "inputs": [
        {
          "internalType": "string",
          "name": "",
          "type": "string"
        }
      ],
      "name": "causes",
      "outputs": [
        {
          "internalType": "string",
          "name": "name",
          "type": "string"
        },
        {
          "internalType": "string",
          "name": "description",
          "type": "string"
        },
        {
          "internalType": "address payable",
          "name": "beneficiary",
          "type": "address"
        },
        {
          "internalType": "uint256",
          "name": "targetAmount",
          "type": "uint256"
        },
        {
          "internalType": "uint256",
          "name": "currentAmount",
          "type": "uint256"
        },
        {
          "internalType": "uint256",
          "name": "donorCount",
          "type": "uint256"
        },
        {
          "internalType": "bool",
          "name": "isActive",
          "type": "bool"
        },
        {
          "internalType": "bool",
          "name": "targetReached",
          "type": "bool"
        }
      ],
      "stateMutability": "view",
      "type": "function"
    },
    {
      "inputs": [
        {
          "internalType": "string",
          "name": "name",
          "type": "string"
        },
        {
          "internalType": "string",
          "name": "description",
          "type": "string"
        },
        {
          "internalType": "address payable",
          "name": "beneficiary",
          "type": "address"
        },
        {
          "internalType": "uint256",
          "name": "targetAmount",
          "type": "uint256"
        }
      ],
      "name": "createCause",
      "outputs": [],
      "stateMutability": "nonpayable",
      "type": "function"
    },
    {
      "inputs": [
        {
          "internalType": "string",
          "name": "cause",
          "type": "string"
        }
      ],
      "name": "donate",
      "outputs": [],
      "stateMutability": "payable",
      "type": "function"
    },
    {
      "inputs": [
        {
          "internalType": "address",
          "name": "",
          "type": "address"
        },
        {
          "internalType": "uint256",
          "name": "",
          "type": "uint256"
        }
      ],
      "name": "donorHistory",
      "outputs": [
        {
          "internalType": "uint256",
          "name": "amount",
          "type": "uint256"
        },
        {
          "internalType": "address",
          "name": "donor",
          "type": "address"
        },
        {
          "internalType": "uint256",
          "name": "timestamp",
          "type": "uint256"
        },
        {
          "internalType": "string",
          "name": "cause",
          "type": "string"
        },
        {
          "internalType": "uint256",
          "name": "impactScore",
          "type": "uint256"
        }
      ],
      "stateMutability": "view",
      "type": "function"
    },
    {
      "inputs": [
        {
          "internalType": "address",
          "name": "",
          "type": "address"
        }
      ],
      "name": "donorImpactScore",
      "outputs": [
        {
          "internalType": "uint256",
          "name": "",
          "type": "uint256"
        }
      ],
      "stateMutability": "view",
      "type": "function"
    },
    {
      "inputs": [
        {
          "internalType": "uint256",
          "name": "tokenId",
          "type": "uint256"
        }
      ],
      "name": "getApproved",
      "outputs": [
        {
          "internalType": "address",
          "name": "",
          "type": "address"
        }
      ],
      "stateMutability": "view",
      "type": "function"
    },
    {
      "inputs": [
        {
          "internalType": "string",
          "name": "cause",
          "type": "string"
        }
      ],
      "name": "getCauseMilestones",
      "outputs": [
        {
          "components": [
            {
              "internalType": "string",
              "name": "description",
              "type": "string"
            },
            {
              "internalType": "uint256",
              "name": "targetAmount",
              "type": "uint256"
            },
            {
              "internalType": "bool",
              "name": "isCompleted",
              "type": "bool"
            },
            {
              "internalType": "uint256",
              "name": "completionTime",
              "type": "uint256"
            }
          ],
          "internalType": "struct TransparentDonationTracker.Milestone[]",
          "name": "",
          "type": "tuple[]"
        }
      ],
      "stateMutability": "view",
      "type": "function"
    },
    {
      "inputs": [
        {
          "internalType": "address",
          "name": "donor",
          "type": "address"
        }
      ],
      "name": "getDonorHistory",
      "outputs": [
        {
          "components": [
            {
              "internalType": "uint256",
              "name": "amount",
              "type": "uint256"
            },
            {
              "internalType": "address",
              "name": "donor",
              "type": "address"
            },
            {
              "internalType": "uint256",
              "name": "timestamp",
              "type": "uint256"
            },
            {
              "internalType": "string",
              "name": "cause",
              "type": "string"
            },
            {
              "internalType": "uint256",
              "name": "impactScore",
              "type": "uint256"
            }
          ],
          "internalType": "struct TransparentDonationTracker.Donation[]",
          "name": "",
          "type": "tuple[]"
        }
      ],
      "stateMutability": "view",
      "type": "function"
    },
    {
      "inputs": [
        {
          "internalType": "address",
          "name": "donor",
          "type": "address"
        }
      ],
      "name": "getDonorImpactScore",
      "outputs": [
        {
          "internalType": "uint256",
          "name": "",
          "type": "uint256"
        }
      ],
      "stateMutability": "view",
      "type": "function"
    },
    {
      "inputs": [
        {
          "internalType": "address",
          "name": "",
          "type": "address"
        }
      ],
      "name": "hasBronzeBadge",
      "outputs": [
        {
          "internalType": "bool",
          "name": "",
          "type": "bool"
        }
      ],
      "stateMutability": "view",
      "type": "function"
    },
    {
      "inputs": [
        {
          "internalType": "address",
          "name": "",
          "type": "address"
        }
      ],
      "name": "hasDiamondBadge",
      "outputs": [
        {
          "internalType": "bool",
          "name": "",
          "type": "bool"
        }
      ],
      "stateMutability": "view",
      "type": "function"
    },
    {
      "inputs": [
        {
          "internalType": "address",
          "name": "",
          "type": "address"
        }
      ],
      "name": "hasGoldBadge",
      "outputs": [
        {
          "internalType": "bool",
          "name": "",
          "type": "bool"
        }
      ],
      "stateMutability": "view",
      "type": "function"
    },
    {
      "inputs": [
        {
          "internalType": "address",
          "name": "",
          "type": "address"
        }
      ],
      "name": "hasSilverBadge",
      "outputs": [
        {
          "internalType": "bool",
          "name": "",
          "type": "bool"
        }
      ],
      "stateMutability": "view",
      "type": "function"
    },
    {
      "inputs": [
        {
          "internalType": "address",
          "name": "owner",
          "type": "address"
        },
        {
          "internalType": "address",
          "name": "operator",
          "type": "address"
        }
      ],
      "name": "isApprovedForAll",
      "outputs": [
        {
          "internalType": "bool",
          "name": "",
          "type": "bool"
        }
      ],
      "stateMutability": "view",
      "type": "function"
    },
    {
      "inputs": [],
      "name": "name",
      "outputs": [
        {
          "internalType": "string",
          "name": "",
          "type": "string"
        }
      ],
      "stateMutability": "view",
      "type": "function"
    },
    {
      "inputs": [],
      "name": "owner",
      "outputs": [
        {
          "internalType": "address",
          "name": "",
          "type": "address"
        }
      ],
      "stateMutability": "view",
      "type": "function"
    },
    {
      "inputs": [
        {
          "internalType": "uint256",
          "name": "tokenId",
          "type": "uint256"
        }
      ],
      "name": "ownerOf",
      "outputs": [
        {
          "internalType": "address",
          "name": "",
          "type": "address"
        }
      ],
      "stateMutability": "view",
      "type": "function"
    },
    {
      "inputs": [],
      "name": "renounceOwnership",
      "outputs": [],
      "stateMutability": "nonpayable",
      "type": "function"
    },
    {
      "inputs": [
        {
          "internalType": "address",
          "name": "from",
          "type": "address"
        },
        {
          "internalType": "address",
          "name": "to",
          "type": "address"
        },
        {
          "internalType": "uint256",
          "name": "tokenId",
          "type": "uint256"
        }
      ],
      "name": "safeTransferFrom",
      "outputs": [],
      "stateMutability": "nonpayable",
      "type": "function"
    },
    {
      "inputs": [
        {
          "internalType": "address",
          "name": "from",
          "type": "address"
        },
        {
          "internalType": "address",
          "name": "to",
          "type": "address"
        },
        {
          "internalType": "uint256",
          "name": "tokenId",
          "type": "uint256"
        },
        {
          "internalType": "bytes",
          "name": "data",
          "type": "bytes"
        }
      ],
      "name": "safeTransferFrom",
      "outputs": [],
      "stateMutability": "nonpayable",
      "type": "function"
    },
    {
      "inputs": [
        {
          "internalType": "address",
          "name": "operator",
          "type": "address"
        },
        {
          "internalType": "bool",
          "name": "approved",
          "type": "bool"
        }
      ],
      "name": "setApprovalForAll",
      "outputs": [],
      "stateMutability": "nonpayable",
      "type": "function"
    },
    {
      "inputs": [
        {
          "internalType": "bytes4",
          "name": "interfaceId",
          "type": "bytes4"
        }
      ],
      "name": "supportsInterface",
      "outputs": [
        {
          "internalType": "bool",
          "name": "",
          "type": "bool"
        }
      ],
      "stateMutability": "view",
      "type": "function"
    },
    {
      "inputs": [],
      "name": "symbol",
      "outputs": [
        {
          "internalType": "string",
          "name": "",
          "type": "string"
        }
      ],
      "stateMutability": "view",
      "type": "function"
    },
    {
      "inputs": [
        {
          "internalType": "uint256",
          "name": "index",
          "type": "uint256"
        }
      ],
      "name": "tokenByIndex",
      "outputs": [
        {
          "internalType": "uint256",
          "name": "",
          "type": "uint256"
        }
      ],
      "stateMutability": "view",
      "type": "function"
    },
    {
      "inputs": [
        {
          "internalType": "address",
          "name": "owner",
          "type": "address"
        },
        {
          "internalType": "uint256",
          "name": "index",
          "type": "uint256"
        }
      ],
      "name": "tokenOfOwnerByIndex",
      "outputs": [
        {
          "internalType": "uint256",
          "name": "",
          "type": "uint256"
        }
      ],
      "stateMutability": "view",
      "type": "function"
    },
    {
      "inputs": [
        {
          "internalType": "uint256",
          "name": "tokenId",
          "type": "uint256"
        }
      ],
      "name": "tokenURI",
      "outputs": [
        {
          "internalType": "string",
          "name": "",
          "type": "string"
        }
      ],
      "stateMutability": "view",
      "type": "function"
    },
    {
      "inputs": [],
      "name": "totalDonations",
      "outputs": [
        {
          "internalType": "uint256",
          "name": "",
          "type": "uint256"
        }
      ],
      "stateMutability": "view",
      "type": "function"
    },
    {
      "inputs": [],
      "name": "totalSupply",
      "outputs": [
        {
          "internalType": "uint256",
          "name": "",
          "type": "uint256"
        }
      ],
      "stateMutability": "view",
      "type": "function"
    },
    {
      "inputs": [
        {
          "internalType": "address",
          "name": "from",
          "type": "address"
        },
        {
          "internalType": "address",
          "name": "to",
          "type": "address"
        },
        {
          "internalType": "uint256",
          "name": "tokenId",
          "type": "uint256"
        }
      ],
      "name": "transferFrom",
      "outputs": [],
      "stateMutability": "nonpayable",
      "type": "function"
    },
    {
      "inputs": [
        {
          "internalType": "address",
          "name": "newOwner",
          "type": "address"
        }
      ],
      "name": "transferOwnership",
      "outputs": [],
      "stateMutability": "nonpayable",
      "type": "function"
    },
    {
      "inputs": [
        {
          "internalType": "string",
          "name": "cause",
          "type": "string"
        }
      ],
      "name": "withdrawFunds",
      "outputs": [],
      "stateMutability": "nonpayable",
      "type": "function"
    }
  ],
  "bytecode": "0x60806040523480156200001157600080fd5b50336040518060400160405280600d81526020016c446f6e6174696f6e426164676560981b8152506040518060400160405280600681526020016544424144474560d01b8152508160009081620000699190620001b8565b506001620000788282620001b8565b5050506001600160a01b038116620000aa57604051631e4fbdf760e01b81526000600482015260240160405180910390fd5b620000b581620000c1565b506001600b5562000284565b600a80546001600160a01b038381166001600160a01b0319831681179093556040519116919082907f8be0079c531659141344cd1fd0a4f28419497f9722a3daafe3b4186f6b6457e090600090a35050565b634e487b7160e01b600052604160045260246000fd5b600181811c908216806200013e57607f821691505b6020821081036200015f57634e487b7160e01b600052602260045260246000fd5b50919050565b601f821115620001b357600081815260208120601f850160051c810160208610156200018e5750805b601f850160051c820191505b81811015620001af578281556001016200019a565b5050505b505050565b81516001600160401b03811115620001d457620001d462000113565b620001ec81620001e5845462000129565b8462000165565b602080601f8311600181146200022457600084156200020b5750858301515b600019600386901b1c1916600185901b178555620001af565b600085815260208120601f198616915b82811015620002555788860151825594840194600190910190840162000234565b5085821015620002745787850151600019600388901b60f8161c191681555b5050505050600190811b01905550565b61371080620002946000396000f3fe60806040526004361061023b5760003560e01c806370a082311161012e578063a847e5ea116100ab578063c87b56dd1161006f578063c87b56dd14610769578063de2ed89314610789578063e985e9c51461079f578063f2fde38b146107bf578063f52a387f146107df57600080fd5b8063a847e5ea146106c4578063b1a23eae146106e4578063b5aebc801461071a578063b88d4fde1461072d578063c1a0db301461074d57600080fd5b80638da5cb5b116100f25780638da5cb5b1461061457806395d89b41146106325780639c1ea27114610647578063a22cb46514610674578063a48f18e21461069457600080fd5b806370a0823114610561578063715018a61461058157806377243d65146105965780637969f3b8146105b65780637ed3840a146105e757600080fd5b80632f745c59116101bc57806356b924971161018057806356b9249714610495578063614b36e2146104c557806361ec48ec146104f55780636352211e1461052557806369a2f0261461054557600080fd5b80632f745c59146103ec5780633e4cbf421461040c57806342842e0e146104395780634f6ccce714610459578063569739741461047957600080fd5b80630b8df9f1116102035780630b8df9f114610311578063130652261461033b57806318160ddd1461038357806319be9f881461039857806323b872dd146103cc57600080fd5b806301ffc9a71461024057806303b86b5a1461027557806306fdde0314610297578063081812fc146102b9578063095ea7b3146102f1575b600080fd5b34801561024c57600080fd5b5061026061025b366004612b7a565b61080f565b60405190151581526020015b60405180910390f35b34801561028157600080fd5b50610295610290366004612be0565b61083a565b005b3480156102a357600080fd5b506102ac610a0b565b60405161026c9190612c72565b3480156102c557600080fd5b506102d96102d4366004612c85565b610a9d565b6040516001600160a01b03909116815260200161026c565b3480156102fd57600080fd5b5061029561030c366004612cb3565b610ac6565b34801561031d57600080fd5b5061032d674563918244f4000081565b60405190815260200161026c565b34801561034757600080fd5b5061032d610356366004612d8b565b81516020818401810180516011825292820194820194909420919093529091526000908152604090205481565b34801561038f57600080fd5b5060085461032d565b3480156103a457600080fd5b506103b86103b3366004612ddd565b610ad1565b60405161026c989796959493929190612e12565b3480156103d857600080fd5b506102956103e7366004612e7a565b610c3d565b3480156103f857600080fd5b5061032d610407366004612cb3565b610cc8565b34801561041857600080fd5b5061042c610427366004612ebb565b610d2d565b60405161026c9190612ed8565b34801561044557600080fd5b50610295610454366004612e7a565b610e69565b34801561046557600080fd5b5061032d610474366004612c85565b610e89565b34801561048557600080fd5b5061032d670de0b6b3a764000081565b3480156104a157600080fd5b506104b56104b0366004612f7b565b610ee2565b60405161026c9493929190612fc0565b3480156104d157600080fd5b506102606104e0366004612ebb565b60156020526000908152604090205460ff1681565b34801561050157600080fd5b50610260610510366004612ebb565b60126020526000908152604090205460ff1681565b34801561053157600080fd5b506102d9610540366004612c85565b610fcc565b34801561055157600080fd5b5061032d67016345785d8a000081565b34801561056d57600080fd5b5061032d61057c366004612ebb565b610fd7565b34801561058d57600080fd5b5061029561101f565b3480156105a257600080fd5b506102956105b1366004612fef565b611033565b3480156105c257600080fd5b506105d66105d1366004612cb3565b61130b565b60405161026c95949392919061307b565b3480156105f357600080fd5b5061032d610602366004612ebb565b60166020526000908152604090205481565b34801561062057600080fd5b50600a546001600160a01b03166102d9565b34801561063e57600080fd5b506102ac6113ed565b34801561065357600080fd5b50610667610662366004612be0565b6113fc565b60405161026c91906130ba565b34801561068057600080fd5b5061029561068f366004613139565b611537565b3480156106a057600080fd5b506102606106af366004612ebb565b60136020526000908152604090205460ff1681565b3480156106d057600080fd5b506102956106df36600461316c565b611542565b3480156106f057600080fd5b5061032d6106ff366004612ebb565b6001600160a01b031660009081526016602052604090205490565b610295610728366004612be0565b61169e565b34801561073957600080fd5b506102956107483660046131e0565b611ad8565b34801561075957600080fd5b5061032d6706f05b59d3b2000081565b34801561077557600080fd5b506102ac610784366004612c85565b611af0565b34801561079557600080fd5b5061032d600d5481565b3480156107ab57600080fd5b506102606107ba366004613260565b611b65565b3480156107cb57600080fd5b506102956107da366004612ebb565b611b93565b3480156107eb57600080fd5b506102606107fa366004612ebb565b60146020526000908152604090205460ff1681565b60006001600160e01b0319821663780e9d6360e01b1480610834575061083482611bd1565b92915050565b610842611c21565b6000600e838360405161085692919061328e565b9081526040519081900360200190206002810154909150336001600160a01b03909116146108bd5760405162461bcd60e51b815260206004820152600f60248201526e4e6f742062656e656669636961727960881b60448201526064015b60405180910390fd5b60008160040154116109085760405162461bcd60e51b81526020600482015260146024820152734e6f2066756e647320746f20776974686472617760601b60448201526064016108b4565b60048101805460009182905560028301546040519192916001600160a01b039091169083908381818185875af1925050503d8060008114610965576040519150601f19603f3d011682016040523d82523d6000602084013e61096a565b606091505b50509050806109ad5760405162461bcd60e51b815260206004820152600f60248201526e151c985b9cd9995c8819985a5b1959608a1b60448201526064016108b4565b60028301546040517f04f1cd9c278166a000e1b082998f5bdbdf1b11c193aafbd7d1a90a0c9093a2ec916109f291889188916001600160a01b039091169087906132c7565b60405180910390a1505050610a076001600b55565b5050565b606060008054610a1a906132f7565b80601f0160208091040260200160405190810160405280929190818152602001828054610a46906132f7565b8015610a935780601f10610a6857610100808354040283529160200191610a93565b820191906000526020600020905b815481529060010190602001808311610a7657829003601f168201915b5050505050905090565b6000610aa882611c4b565b506000828152600460205260409020546001600160a01b0316610834565b610a07828233611c84565b8051602081830181018051600e82529282019190930120915280548190610af7906132f7565b80601f0160208091040260200160405190810160405280929190818152602001828054610b23906132f7565b8015610b705780601f10610b4557610100808354040283529160200191610b70565b820191906000526020600020905b815481529060010190602001808311610b5357829003601f168201915b505050505090806001018054610b85906132f7565b80601f0160208091040260200160405190810160405280929190818152602001828054610bb1906132f7565b8015610bfe5780601f10610bd357610100808354040283529160200191610bfe565b820191906000526020600020905b815481529060010190602001808311610be157829003601f168201915b505050600284015460038501546004860154600587015460069097015495966001600160a01b0390931695919450925060ff8082169161010090041688565b6001600160a01b038216610c6757604051633250574960e11b8152600060048201526024016108b4565b6000610c74838333611c91565b9050836001600160a01b0316816001600160a01b031614610cc2576040516364283d7b60e01b81526001600160a01b03808616600483015260248201849052821660448201526064016108b4565b50505050565b6000610cd383610fd7565b8210610d045760405163295f44f760e21b81526001600160a01b0384166004820152602481018390526044016108b4565b506001600160a01b03919091166000908152600660209081526040808320938352929052205490565b6001600160a01b0381166000908152601060209081526040808320805482518185028101850190935280835260609492939192909184015b82821015610e5e5760008481526020908190206040805160a081018252600586029092018054835260018101546001600160a01b031693830193909352600283015490820152600382018054919291606084019190610dc3906132f7565b80601f0160208091040260200160405190810160405280929190818152602001828054610def906132f7565b8015610e3c5780601f10610e1157610100808354040283529160200191610e3c565b820191906000526020600020905b815481529060010190602001808311610e1f57829003601f168201915b5050505050815260200160048201548152505081526020019060010190610d65565b505050509050919050565b610e8483838360405180602001604052806000815250611ad8565b505050565b6000610e9460085490565b8210610ebd5760405163295f44f760e21b815260006004820152602481018390526044016108b4565b60088281548110610ed057610ed0613331565b90600052602060002001549050919050565b8151602081840181018051600f825292820191850191909120919052805482908110610f0d57600080fd5b906000526020600020906004020160009150915050806000018054610f31906132f7565b80601f0160208091040260200160405190810160405280929190818152602001828054610f5d906132f7565b8015610faa5780601f10610f7f57610100808354040283529160200191610faa565b820191906000526020600020905b815481529060010190602001808311610f8d57829003601f168201915b50505050600183015460028401546003909401549293909260ff909116915084565b600061083482611c4b565b60006001600160a01b038216611003576040516322718ad960e21b8152600060048201526024016108b4565b506001600160a01b031660009081526003602052604090205490565b611027611d66565b6110316000611d93565b565b61103b611d66565b60006001600160a01b0316600e878760405161105892919061328e565b908152604051908190036020019020600201546001600160a01b0316146110b85760405162461bcd60e51b8152602060048201526014602482015273436175736520616c72656164792065786973747360601b60448201526064016108b4565b600081116111085760405162461bcd60e51b815260206004820152601e60248201527f54617267657420616d6f756e74206d75737420626520706f736974697665000060448201526064016108b4565b6001600160a01b0382166111545760405162461bcd60e51b8152602060048201526013602482015272496e76616c69642062656e656669636961727960681b60448201526064016108b4565b60405180610100016040528087878080601f016020809104026020016040519081016040528093929190818152602001838380828437600092019190915250505090825250604080516020601f88018190048102820181019092528681529181019190879087908190840183828082843760009201829052509385525050506001600160a01b038516602083015260408083018590526060830182905260808301829052600160a084015260c09092015251600e90611216908990899061328e565b90815260405190819003602001902081518190611233908261338d565b5060208201516001820190611248908261338d565b506040828101516002830180546001600160a01b0319166001600160a01b03909216919091179055606083015160038301556080830151600483015560a0830151600583015560c08301516006909201805460e09094015161ffff1990941692151561ff0019169290921761010093151593909302929092179055517f4b016bfc887ad4eb1cada19f10fb664a5e098841bc824221cb83fa0117022b69906112fb9088908890889088908890889061344d565b60405180910390a1505050505050565b6010602052816000526040600020818154811061132757600080fd5b600091825260209091206005909102018054600182015460028301546003840180549396506001600160a01b0390921694509291611364906132f7565b80601f0160208091040260200160405190810160405280929190818152602001828054611390906132f7565b80156113dd5780601f106113b2576101008083540402835291602001916113dd565b820191906000526020600020905b8154815290600101906020018083116113c057829003601f168201915b5050505050908060040154905085565b606060018054610a1a906132f7565b6060600f838360405161141092919061328e565b9081526020016040518091039020805480602002602001604051908101604052809291908181526020016000905b8282101561152b5783829060005260206000209060040201604051806080016040529081600082018054611471906132f7565b80601f016020809104026020016040519081016040528092919081815260200182805461149d906132f7565b80156114ea5780601f106114bf576101008083540402835291602001916114ea565b820191906000526020600020905b8154815290600101906020018083116114cd57829003601f168201915b5050509183525050600182810154602080840191909152600284015460ff16151560408401526003909301546060909201919091529183529201910161143e565b50505050905092915050565b610a07338383611de5565b61154a611d66565b600e858560405161155c92919061328e565b9081526040519081900360200190206006015460ff1661158e5760405162461bcd60e51b81526004016108b490613493565b600f85856040516115a092919061328e565b9081526020016040518091039020604051806080016040528085858080601f016020809104026020016040519081016040528093929190818152602001838380828437600092018290525093855250505060208083018690526040830182905260609092018190528354600181018555938152208151919260040201908190611629908261338d565b506020820151600182015560408083015160028301805460ff1916911515919091179055606090920151600390910155517f6267619a065f1802a7ede667e1406c552c481e3f9f50e6222455e91f1f9533c19061168f90879087908790879087906134d6565b60405180910390a15050505050565b6116a6611c21565b600034116116f65760405162461bcd60e51b815260206004820152601960248201527f446f6e6174696f6e206d75737420626520706f7369746976650000000000000060448201526064016108b4565b600e828260405161170892919061328e565b9081526040519081900360200190206006015460ff1661173a5760405162461bcd60e51b81526004016108b490613493565b600e828260405161174c92919061328e565b9081526040519081900360200190206006015460ff61010090910416156117b55760405162461bcd60e51b815260206004820152601c60248201527f43617573652074617267657420616c726561647920726561636865640000000060448201526064016108b4565b6000600e83836040516117c992919061328e565b90815260200160405180910390209050601183836040516117eb92919061328e565b9081526040805160209281900383019020336000908152925281205490036118255760058101805490600061181f83613526565b91905055505b34816004016000828254611839919061353f565b92505081905550346011848460405161185392919061328e565b908152604080516020928190038301902033600090815292528120805490919061187e90849061353f565b9250508190555034600d6000828254611897919061353f565b9091555060009050670de0b6b3a76400006118b3346064613552565b6118bd9190613569565b336000908152601660205260408120805492935083929091906118e190849061353f565b909155505033600081815260106020908152604091829020825160a0810184523481528083019490945242848401528251601f8801839004830281018301909352868352929160608301918890889081908401838280828437600092018290525093855250505060209182018590528354600180820186559482529082902083516005909202019081559082015192810180546001600160a01b0319166001600160a01b039094169390931790925560408101516002830155606081015190919060038201906119b1908261338d565b506080820151816004015550506119c88484611e84565b8160030154826004015410611a2f5760068201805461ff001916610100179055600482015460058301546040517f3cf57333be1dc2498abfcfe51a381de01300d8e90f4a9fbeba575d631ff8cb7392611a269288928892919061358b565b60405180910390a15b611a3833611ff5565b336001600160a01b03167fd47341500bfd05854c4573b0298cdf0cc324952885c20c0ea43644414c4202bb8585348542604051611a799594939291906135b2565b60405180910390a233600081815260166020526040908190205490517fb475cc969ea58862a1efe8007da38226b4f66e1eaf2c49e76f4e26fa9f4f9c6b91611ac491889088906135e3565b60405180910390a25050610a076001600b55565b611ae3848484610c3d565b610cc23385858585612388565b6060611afb82611c4b565b506000611b1360408051602081019091526000815290565b90506000815111611b335760405180602001604052806000815250611b5e565b80611b3d846124b2565b604051602001611b4e929190613606565b6040516020818303038152906040525b9392505050565b6001600160a01b03918216600090815260056020908152604080832093909416825291909152205460ff1690565b611b9b611d66565b6001600160a01b038116611bc557604051631e4fbdf760e01b8152600060048201526024016108b4565b611bce81611d93565b50565b60006001600160e01b031982166380ac58cd60e01b1480611c0257506001600160e01b03198216635b5e139f60e01b145b8061083457506301ffc9a760e01b6001600160e01b0319831614610834565b6002600b5403611c4457604051633ee5aeb560e01b815260040160405180910390fd5b6002600b55565b6000818152600260205260408120546001600160a01b03168061083457604051637e27328960e01b8152600481018490526024016108b4565b610e848383836001612545565b600080611c9f85858561264b565b90506001600160a01b038116611cfc57611cf784600880546000838152600960205260408120829055600182018355919091527ff3f7a9fe364faab93b216da50a3214154f22a0a2b415b23a84c8169e8b636ee30155565b611d1f565b846001600160a01b0316816001600160a01b031614611d1f57611d1f8185612744565b6001600160a01b038516611d3b57611d36846127c5565b611d5e565b846001600160a01b0316816001600160a01b031614611d5e57611d5e8585612874565b949350505050565b600a546001600160a01b031633146110315760405163118cdaa760e01b81523360048201526024016108b4565b600a80546001600160a01b038381166001600160a01b0319831681179093556040519116919082907f8be0079c531659141344cd1fd0a4f28419497f9722a3daafe3b4186f6b6457e090600090a35050565b6001600160a01b038216611e1757604051630b61174360e31b81526001600160a01b03831660048201526024016108b4565b6001600160a01b03838116600081815260056020908152604080832094871680845294825291829020805460ff191686151590811790915591519182527f17307eab39ab6107e8899845ad3d59bd9653f200f220920489ca2b5937696c31910160405180910390a3505050565b6000600f8383604051611e9892919061328e565b908152602001604051809103902090506000600e8484604051611ebc92919061328e565b908152602001604051809103902060040154905060005b8254811015611fee57828181548110611eee57611eee613331565b600091825260209091206002600490920201015460ff16158015611f355750828181548110611f1f57611f1f613331565b9060005260206000209060040201600101548210155b15611fdc576001838281548110611f4e57611f4e613331565b906000526020600020906004020160020160006101000a81548160ff02191690831515021790555042838281548110611f8957611f89613331565b9060005260206000209060040201600301819055507f78ff01ee5045142fe9fe9ca233feef51bdc29917c87862f903f65b8fc83fed7f85858342604051611fd3949392919061358b565b60405180910390a15b80611fe681613526565b915050611ed3565b5050505050565b6001600160a01b038116600090815260106020908152604080832080548251818502810185019093528083528493849084015b828210156121215760008481526020908190206040805160a081018252600586029092018054835260018101546001600160a01b031693830193909352600283015490820152600382018054919291606084019190612086906132f7565b80601f01602080910402602001604051908101604052809291908181526020018280546120b2906132f7565b80156120ff5780601f106120d4576101008083540402835291602001916120ff565b820191906000526020600020905b8154815290600101906020018083116120e257829003601f168201915b5050505050815260200160048201548152505081526020019060010190612028565b50505050905060005b81518110156121705781818151811061214557612145613331565b6020026020010151600001518361215c919061353f565b92508061216881613526565b91505061212a565b50674563918244f4000082101580156121a257506001600160a01b03831660009081526015602052604090205460ff16155b156121f8576121d083604051806040016040528060078152602001661112505353d39160ca1b8152506128c4565b6001600160a01b0383166000908152601560205260409020805460ff19166001179055505050565b670de0b6b3a7640000821015801561222957506001600160a01b03831660009081526014602052604090205460ff16155b1561227c57612254836040518060400160405280600481526020016311d3d31160e21b8152506128c4565b6001600160a01b0383166000908152601460205260409020805460ff19166001179055505050565b6706f05b59d3b2000082101580156122ad57506001600160a01b03831660009081526013602052604090205460ff16155b15612302576122da836040518060400160405280600681526020016529a4a62b22a960d11b8152506128c4565b6001600160a01b0383166000908152601360205260409020805460ff19166001179055505050565b67016345785d8a0000821015801561233357506001600160a01b03831660009081526012602052604090205460ff16155b15610e8457612360836040518060400160405280600681526020016542524f4e5a4560d01b8152506128c4565b6001600160a01b0383166000908152601260205260409020805460ff19166001179055505050565b6001600160a01b0383163b15611fee57604051630a85bd0160e11b81526001600160a01b0384169063150b7a02906123ca908890889087908790600401613635565b6020604051808303816000875af1925050508015612405575060408051601f3d908101601f1916820190925261240291810190613672565b60015b61246e573d808015612433576040519150601f19603f3d011682016040523d82523d6000602084013e612438565b606091505b50805160000361246657604051633250574960e11b81526001600160a01b03851660048201526024016108b4565b805181602001fd5b6001600160e01b03198116630a85bd0160e11b146124aa57604051633250574960e11b81526001600160a01b03851660048201526024016108b4565b505050505050565b606060006124bf8361292e565b600101905060008167ffffffffffffffff8111156124df576124df612cdf565b6040519080825280601f01601f191660200182016040528015612509576020820181803683370190505b5090508181016020015b600019016f181899199a1a9b1b9c1cb0b131b232b360811b600a86061a8153600a850494508461251357509392505050565b808061255957506001600160a01b03821615155b1561261b57600061256984611c4b565b90506001600160a01b038316158015906125955750826001600160a01b0316816001600160a01b031614155b80156125a857506125a68184611b65565b155b156125d15760405163a9fbf51f60e01b81526001600160a01b03841660048201526024016108b4565b81156126195783856001600160a01b0316826001600160a01b03167f8c5be1e5ebec7d5bd14f71427d1e84f3dd0314c0f7b2291e5b200ac8c7c3b92560405160405180910390a45b505b5050600090815260046020526040902080546001600160a01b0319166001600160a01b0392909216919091179055565b6000828152600260205260408120546001600160a01b039081169083161561267857612678818486612a06565b6001600160a01b038116156126b657612695600085600080612545565b6001600160a01b038116600090815260036020526040902080546000190190555b6001600160a01b038516156126e5576001600160a01b0385166000908152600360205260409020805460010190555b60008481526002602052604080822080546001600160a01b0319166001600160a01b0389811691821790925591518793918516917fddf252ad1be2c89b69c2b068fc378daa952ba7f163c4a11628f55a4df523b3ef91a4949350505050565b600061274f83610fd7565b6000838152600760209081526040808320546001600160a01b03881684526006909252909120919250908183146127a657600083815260208281526040808320548584528184208190558352600790915290208290555b6000938452600760209081526040808620869055938552525081205550565b6008546000906127d79060019061368f565b600083815260096020526040812054600880549394509092849081106127ff576127ff613331565b90600052602060002001549050806008838154811061282057612820613331565b6000918252602080832090910192909255828152600990915260408082208490558582528120556008805480612858576128586136a2565b6001900381819060005260206000200160009055905550505050565b6000600161288184610fd7565b61288b919061368f565b6001600160a01b039093166000908152600660209081526040808320868452825280832085905593825260079052919091209190915550565b600c546128d18382612a6a565b600c80549060006128e183613526565b9190505550826001600160a01b03167fd06cdb8a5a561c4954f371279402e0b6e4fdff028968b69de562b3823dcea71683836040516129219291906136b8565b60405180910390a2505050565b60008072184f03e93ff9f4daa797ed6e38ed64bf6a1f0160401b831061296d5772184f03e93ff9f4daa797ed6e38ed64bf6a1f0160401b830492506040015b6d04ee2d6d415b85acef81000000008310612999576d04ee2d6d415b85acef8100000000830492506020015b662386f26fc1000083106129b757662386f26fc10000830492506010015b6305f5e10083106129cf576305f5e100830492506008015b61271083106129e357612710830492506004015b606483106129f5576064830492506002015b600a83106108345760010192915050565b612a11838383612a84565b610e84576001600160a01b038316612a3f57604051637e27328960e01b8152600481018290526024016108b4565b60405163177e802f60e01b81526001600160a01b0383166004820152602481018290526044016108b4565b610a07828260405180602001604052806000815250612ae7565b60006001600160a01b03831615801590611d5e5750826001600160a01b0316846001600160a01b03161480612abe5750612abe8484611b65565b80611d5e5750506000908152600460205260409020546001600160a01b03908116911614919050565b612af18383612aff565b610e84336000858585612388565b6001600160a01b038216612b2957604051633250574960e11b8152600060048201526024016108b4565b6000612b3783836000611c91565b90506001600160a01b03811615610e84576040516339e3563760e11b8152600060048201526024016108b4565b6001600160e01b031981168114611bce57600080fd5b600060208284031215612b8c57600080fd5b8135611b5e81612b64565b60008083601f840112612ba957600080fd5b50813567ffffffffffffffff811115612bc157600080fd5b602083019150836020828501011115612bd957600080fd5b9250929050565b60008060208385031215612bf357600080fd5b823567ffffffffffffffff811115612c0a57600080fd5b612c1685828601612b97565b90969095509350505050565b60005b83811015612c3d578181015183820152602001612c25565b50506000910152565b60008151808452612c5e816020860160208601612c22565b601f01601f19169290920160200192915050565b602081526000611b5e6020830184612c46565b600060208284031215612c9757600080fd5b5035919050565b6001600160a01b0381168114611bce57600080fd5b60008060408385031215612cc657600080fd5b8235612cd181612c9e565b946020939093013593505050565b634e487b7160e01b600052604160045260246000fd5b600067ffffffffffffffff80841115612d1057612d10612cdf565b604051601f8501601f19908116603f01168101908282118183101715612d3857612d38612cdf565b81604052809350858152868686011115612d5157600080fd5b858560208301376000602087830101525050509392505050565b600082601f830112612d7c57600080fd5b611b5e83833560208501612cf5565b60008060408385031215612d9e57600080fd5b823567ffffffffffffffff811115612db557600080fd5b612dc185828601612d6b565b9250506020830135612dd281612c9e565b809150509250929050565b600060208284031215612def57600080fd5b813567ffffffffffffffff811115612e0657600080fd5b611d5e84828501612d6b565b6000610100808352612e268184018c612c46565b90508281036020840152612e3a818b612c46565b6001600160a01b0399909916604084015250506060810195909552608085019390935260a0840191909152151560c0830152151560e09091015292915050565b600080600060608486031215612e8f57600080fd5b8335612e9a81612c9e565b92506020840135612eaa81612c9e565b929592945050506040919091013590565b600060208284031215612ecd57600080fd5b8135611b5e81612c9e565b60006020808301818452808551808352604092508286019150828160051b87010184880160005b83811015612f6d57888303603f19018552815180518452878101516001600160a01b031688850152868101518785015260608082015160a08287018190529190612f4b83880182612c46565b6080948501519790940196909652505094870194925090860190600101612eff565b509098975050505050505050565b60008060408385031215612f8e57600080fd5b823567ffffffffffffffff811115612fa557600080fd5b612fb185828601612d6b565b95602094909401359450505050565b608081526000612fd36080830187612c46565b6020830195909552509115156040830152606090910152919050565b6000806000806000806080878903121561300857600080fd5b863567ffffffffffffffff8082111561302057600080fd5b61302c8a838b01612b97565b9098509650602089013591508082111561304557600080fd5b5061305289828a01612b97565b909550935050604087013561306681612c9e565b80925050606087013590509295509295509295565b85815260018060a01b038516602082015283604082015260a0606082015260006130a860a0830185612c46565b90508260808301529695505050505050565b60006020808301818452808551808352604092508286019150828160051b87010184880160005b83811015612f6d57603f1989840301855281516080815181865261310782870182612c46565b838b0151878c01528984015115158a8801526060938401519390960192909252505093860193908601906001016130e1565b6000806040838503121561314c57600080fd5b823561315781612c9e565b915060208301358015158114612dd257600080fd5b60008060008060006060868803121561318457600080fd5b853567ffffffffffffffff8082111561319c57600080fd5b6131a889838a01612b97565b909750955060208801359150808211156131c157600080fd5b506131ce88828901612b97565b96999598509660400135949350505050565b600080600080608085870312156131f657600080fd5b843561320181612c9e565b9350602085013561321181612c9e565b925060408501359150606085013567ffffffffffffffff81111561323457600080fd5b8501601f8101871361324557600080fd5b61325487823560208401612cf5565b91505092959194509250565b6000806040838503121561327357600080fd5b823561327e81612c9e565b91506020830135612dd281612c9e565b8183823760009101908152919050565b81835281816020850137506000828201602090810191909152601f909101601f19169091010190565b6060815260006132db60608301868861329e565b6001600160a01b03949094166020830152506040015292915050565b600181811c9082168061330b57607f821691505b60208210810361332b57634e487b7160e01b600052602260045260246000fd5b50919050565b634e487b7160e01b600052603260045260246000fd5b601f821115610e8457600081815260208120601f850160051c8101602086101561336e5750805b601f850160051c820191505b818110156124aa5782815560010161337a565b815167ffffffffffffffff8111156133a7576133a7612cdf565b6133bb816133b584546132f7565b84613347565b602080601f8311600181146133f057600084156133d85750858301515b600019600386901b1c1916600185901b1785556124aa565b600085815260208120601f198616915b8281101561341f57888601518255948401946001909101908401613400565b508582101561343d5787850151600019600388901b60f8161c191681555b5050505050600190811b01905550565b60808152600061346160808301888a61329e565b828103602084015261347481878961329e565b6001600160a01b03959095166040840152505060600152949350505050565b60208082526023908201527f436175736520646f6573206e6f74206578697374206f7220697320696e61637460408201526269766560e81b606082015260800190565b6060815260006134ea60608301878961329e565b82810360208401526134fd81868861329e565b9150508260408301529695505050505050565b634e487b7160e01b600052601160045260246000fd5b60006001820161353857613538613510565b5060010190565b8082018082111561083457610834613510565b808202811582820484141761083457610834613510565b60008261358657634e487b7160e01b600052601260045260246000fd5b500490565b60608152600061359f60608301868861329e565b6020830194909452506040015292915050565b6080815260006135c660808301878961329e565b602083019590955250604081019290925260609091015292915050565b8381526040602082015260006135fd60408301848661329e565b95945050505050565b60008351613618818460208801612c22565b83519083019061362c818360208801612c22565b01949350505050565b6001600160a01b038581168252841660208201526040810183905260806060820181905260009061366890830184612c46565b9695505050505050565b60006020828403121561368457600080fd5b8151611b5e81612b64565b8181038181111561083457610834613510565b634e487b7160e01b600052603160045260246000fd5b6040815260006136cb6040830185612c46565b9050826020830152939250505056fea26469706673582212205b2ac7902bfbbe0d6f0cf754e61714b326646402ffc3bab506d9a38a078f6ecd64736f6c63430008140033",
  "linkReferences": {},
  "deployedLinkReferences": {}
}